{
  "_format": "hh-sol-artifact-1",
  "contractName": "SocialMedia",
  "sourceName": "contracts/SocialMedia.sol",
  "abi": [
    {
      "inputs": [
        {
          "internalType": "address",
          "name": "",
          "type": "address"
        }
      ],
      "name": "_account",
      "outputs": [
        {
          "internalType": "string",
          "name": "accountCid",
          "type": "string"
        },
        {
          "internalType": "address",
          "name": "userId",
          "type": "address"
        },
        {
          "internalType": "uint256",
          "name": "userNum",
          "type": "uint256"
        },
        {
          "internalType": "uint8",
          "name": "flag",
          "type": "uint8"
        }
      ],
      "stateMutability": "view",
      "type": "function"
    },
    {
      "inputs": [
        {
          "internalType": "address",
          "name": "",
          "type": "address"
        },
        {
          "internalType": "uint256",
          "name": "",
          "type": "uint256"
        }
      ],
      "name": "_followers",
      "outputs": [
        {
          "internalType": "address",
          "name": "",
          "type": "address"
        }
      ],
      "stateMutability": "view",
      "type": "function"
    },
    {
      "inputs": [
        {
          "internalType": "address",
          "name": "",
          "type": "address"
        }
      ],
      "name": "_picture",
      "outputs": [
        {
          "internalType": "string",
          "name": "pictureCid",
          "type": "string"
        }
      ],
      "stateMutability": "view",
      "type": "function"
    },
    {
      "inputs": [
        {
          "internalType": "uint256",
          "name": "postId",
          "type": "uint256"
        },
        {
          "internalType": "string",
          "name": "content",
          "type": "string"
        }
      ],
      "name": "addComment",
      "outputs": [],
      "stateMutability": "nonpayable",
      "type": "function"
    },
    {
      "inputs": [
        {
          "internalType": "address",
          "name": "wallet",
          "type": "address"
        },
        {
          "internalType": "string",
          "name": "p_hash",
          "type": "string"
        },
        {
          "internalType": "string",
          "name": "img_hash",
          "type": "string"
        }
      ],
      "name": "addPost",
      "outputs": [],
      "stateMutability": "nonpayable",
      "type": "function"
    },
    {
      "inputs": [],
      "name": "comment_count",
      "outputs": [
        {
          "internalType": "uint256",
          "name": "",
          "type": "uint256"
        }
      ],
      "stateMutability": "view",
      "type": "function"
    },
    {
      "inputs": [
        {
          "internalType": "address",
          "name": "wallet",
          "type": "address"
        },
        {
          "internalType": "address",
          "name": "follower",
          "type": "address"
        }
      ],
      "name": "follow",
      "outputs": [],
      "stateMutability": "nonpayable",
      "type": "function"
    },
    {
      "inputs": [],
      "name": "getAllProfiles",
      "outputs": [
        {
          "components": [
            {
              "internalType": "string",
              "name": "accountCid",
              "type": "string"
            },
            {
              "internalType": "address",
              "name": "userId",
              "type": "address"
            },
            {
              "internalType": "uint256",
              "name": "userNum",
              "type": "uint256"
            },
            {
              "internalType": "uint8",
              "name": "flag",
              "type": "uint8"
            }
          ],
          "internalType": "struct SocialMedia.userAccount[]",
          "name": "",
          "type": "tuple[]"
        }
      ],
      "stateMutability": "view",
      "type": "function"
    },
    {
      "inputs": [
        {
          "internalType": "address",
          "name": "wallet",
          "type": "address"
        }
      ],
      "name": "getFollowers",
      "outputs": [
        {
          "internalType": "address[]",
          "name": "",
          "type": "address[]"
        }
      ],
      "stateMutability": "view",
      "type": "function"
    },
    {
      "inputs": [
        {
          "internalType": "address",
          "name": "wallet",
          "type": "address"
        }
      ],
      "name": "getProfile",
      "outputs": [
        {
          "components": [
            {
              "internalType": "string",
              "name": "accountCid",
              "type": "string"
            },
            {
              "internalType": "address",
              "name": "userId",
              "type": "address"
            },
            {
              "internalType": "uint256",
              "name": "userNum",
              "type": "uint256"
            },
            {
              "internalType": "uint8",
              "name": "flag",
              "type": "uint8"
            }
          ],
          "internalType": "struct SocialMedia.userAccount",
          "name": "",
          "type": "tuple"
        }
      ],
      "stateMutability": "view",
      "type": "function"
    },
    {
      "inputs": [
        {
          "internalType": "uint256",
          "name": "",
          "type": "uint256"
        }
      ],
      "name": "post",
      "outputs": [
        {
          "internalType": "string",
          "name": "postHash",
          "type": "string"
        },
        {
          "internalType": "string",
          "name": "imgHash",
          "type": "string"
        },
        {
          "internalType": "address",
          "name": "userId",
          "type": "address"
        },
        {
          "internalType": "uint256",
          "name": "postNum",
          "type": "uint256"
        },
        {
          "internalType": "uint256",
          "name": "cmtcount",
          "type": "uint256"
        }
      ],
      "stateMutability": "view",
      "type": "function"
    },
    {
      "inputs": [],
      "name": "post_count",
      "outputs": [
        {
          "internalType": "uint256",
          "name": "",
          "type": "uint256"
        }
      ],
      "stateMutability": "view",
      "type": "function"
    },
    {
      "inputs": [
        {
          "internalType": "string",
          "name": "newPCid",
          "type": "string"
        },
        {
          "internalType": "address",
          "name": "wallet",
          "type": "address"
        }
      ],
      "name": "updatePicture",
      "outputs": [],
      "stateMutability": "nonpayable",
      "type": "function"
    },
    {
      "inputs": [
        {
          "internalType": "string",
          "name": "accCid",
          "type": "string"
        },
        {
          "internalType": "address",
          "name": "wallet",
          "type": "address"
        }
      ],
      "name": "updateProfile",
      "outputs": [],
      "stateMutability": "nonpayable",
      "type": "function"
    },
    {
      "inputs": [],
      "name": "user_count",
      "outputs": [
        {
          "internalType": "uint256",
          "name": "",
          "type": "uint256"
        }
      ],
      "stateMutability": "view",
      "type": "function"
    },
    {
      "inputs": [],
      "name": "viewPost",
      "outputs": [
        {
          "components": [
            {
              "internalType": "string",
              "name": "postHash",
              "type": "string"
            },
            {
              "internalType": "string",
              "name": "imgHash",
              "type": "string"
            },
            {
              "internalType": "address",
              "name": "userId",
              "type": "address"
            },
            {
              "internalType": "uint256",
              "name": "postNum",
              "type": "uint256"
            },
            {
              "internalType": "uint256",
              "name": "cmtcount",
              "type": "uint256"
            }
          ],
          "internalType": "struct SocialMedia.userPost[]",
          "name": "",
          "type": "tuple[]"
        }
      ],
      "stateMutability": "view",
      "type": "function"
    },
    {
      "inputs": [
        {
          "internalType": "uint256",
          "name": "postId",
          "type": "uint256"
        }
      ],
      "name": "viewPostComment",
      "outputs": [
        {
          "internalType": "string[]",
          "name": "",
          "type": "string[]"
        }
      ],
      "stateMutability": "view",
      "type": "function"
    },
    {
      "inputs": [
        {
          "internalType": "address",
          "name": "wallet",
          "type": "address"
        }
      ],
      "name": "viewUserPost",
      "outputs": [
        {
          "components": [
            {
              "internalType": "string",
              "name": "postHash",
              "type": "string"
            },
            {
              "internalType": "string",
              "name": "imgHash",
              "type": "string"
            },
            {
              "internalType": "address",
              "name": "userId",
              "type": "address"
            },
            {
              "internalType": "uint256",
              "name": "postNum",
              "type": "uint256"
            },
            {
              "internalType": "uint256",
              "name": "cmtcount",
              "type": "uint256"
            }
          ],
          "internalType": "struct SocialMedia.userPost[]",
          "name": "",
          "type": "tuple[]"
        }
      ],
      "stateMutability": "view",
      "type": "function"
    }
  ],
  "bytecode": "0x608060405234801561001057600080fd5b506129eb806100206000396000f3fe608060405234801561001057600080fd5b50600436106101165760003560e01c8063aa7e5683116100a2578063c264ea4311610071578063c264ea43146102f3578063c2fe20221461030f578063caa5863c1461033f578063cb0e55a814610373578063ffc56696146103a657610116565b8063aa7e56831461026b578063bb805f6914610287578063bc153105146102a5578063c21d71c7146102d557610116565b80632cfa23a1116100e95780632cfa23a1146101a3578063477c1968146101bf5780639068f2c7146101ef57806399d147c21461021f5780639cd90a111461023b57610116565b80630b1fe7841461011b5780630f53a470146101395780632592f096146101695780632ae025e014610187575b600080fd5b6101236103c4565b6040516101309190611ede565b60405180910390f35b610153600480360381019061014e9190611f40565b6105fd565b6040516101609190611fd0565b60405180910390f35b610171610765565b60405161017e9190612131565b60405180910390f35b6101a1600480360381019061019c9190612288565b610952565b005b6101bd60048036038101906101b89190612288565b610a32565b005b6101d960048036038101906101d49190611f40565b610de2565b6040516101e6919061232e565b60405180910390f35b6102096004803603810190610204919061237c565b610e88565b60405161021691906123cb565b60405180910390f35b610239600480360381019061023491906123e6565b610ed6565b005b61025560048036038101906102509190611f40565b610fe9565b6040516102629190612131565b60405180910390f35b61028560048036038101906102809190612426565b6113e9565b005b61028f61150c565b60405161029c9190612491565b60405180910390f35b6102bf60048036038101906102ba91906124ac565b611512565b6040516102cc919061259b565b60405180910390f35b6102dd6116c1565b6040516102ea9190612491565b60405180910390f35b61030d600480360381019061030891906125bd565b6116c7565b005b61032960048036038101906103249190611f40565b611853565b60405161033691906126f7565b60405180910390f35b610359600480360381019061035491906124ac565b611920565b60405161036a959493929190612719565b60405180910390f35b61038d60048036038101906103889190611f40565b611a96565b60405161039d9493929190612789565b60405180910390f35b6103ae611b7b565b6040516103bb9190612491565b60405180910390f35b6060600060025467ffffffffffffffff8111156103e4576103e361215d565b5b60405190808252806020026020018201604052801561041d57816020015b61040a611b81565b8152602001906001900390816104025790505b50905060005b6002548110156105f5576003600060058381548110610445576104446127d5565b5b9060005260206000200160009054906101000a900473ffffffffffffffffffffffffffffffffffffffff1673ffffffffffffffffffffffffffffffffffffffff1673ffffffffffffffffffffffffffffffffffffffff1681526020019081526020016000206040518060800160405290816000820180546104c590612833565b80601f01602080910402602001604051908101604052809291908181526020018280546104f190612833565b801561053e5780601f106105135761010080835404028352916020019161053e565b820191906000526020600020905b81548152906001019060200180831161052157829003601f168201915b505050505081526020016001820160009054906101000a900473ffffffffffffffffffffffffffffffffffffffff1673ffffffffffffffffffffffffffffffffffffffff1673ffffffffffffffffffffffffffffffffffffffff168152602001600282015481526020016003820160009054906101000a900460ff1660ff1660ff16815250508282815181106105d7576105d66127d5565b5b602002602001018190525080806105ed90612894565b915050610423565b508091505090565b610605611b81565b600360008373ffffffffffffffffffffffffffffffffffffffff1673ffffffffffffffffffffffffffffffffffffffff16815260200190815260200160002060405180608001604052908160008201805461065f90612833565b80601f016020809104026020016040519081016040528092919081815260200182805461068b90612833565b80156106d85780601f106106ad576101008083540402835291602001916106d8565b820191906000526020600020905b8154815290600101906020018083116106bb57829003601f168201915b505050505081526020016001820160009054906101000a900473ffffffffffffffffffffffffffffffffffffffff1673ffffffffffffffffffffffffffffffffffffffff1673ffffffffffffffffffffffffffffffffffffffff168152602001600282015481526020016003820160009054906101000a900460ff1660ff1660ff16815250509050919050565b60606007805480602002602001604051908101604052809291908181526020016000905b8282101561094957838290600052602060002090600502016040518060a00160405290816000820180546107bc90612833565b80601f01602080910402602001604051908101604052809291908181526020018280546107e890612833565b80156108355780601f1061080a57610100808354040283529160200191610835565b820191906000526020600020905b81548152906001019060200180831161081857829003601f168201915b5050505050815260200160018201805461084e90612833565b80601f016020809104026020016040519081016040528092919081815260200182805461087a90612833565b80156108c75780601f1061089c576101008083540402835291602001916108c7565b820191906000526020600020905b8154815290600101906020018083116108aa57829003601f168201915b505050505081526020016002820160009054906101000a900473ffffffffffffffffffffffffffffffffffffffff1673ffffffffffffffffffffffffffffffffffffffff1673ffffffffffffffffffffffffffffffffffffffff1681526020016003820154815260200160048201548152505081526020019060010190610789565b50505050905090565b3373ffffffffffffffffffffffffffffffffffffffff168173ffffffffffffffffffffffffffffffffffffffff16146109c0576040517f08c379a00000000000000000000000000000000000000000000000000000000081526004016109b790612929565b60405180910390fd5b604051806020016040528083815250600460008373ffffffffffffffffffffffffffffffffffffffff1673ffffffffffffffffffffffffffffffffffffffff1681526020019081526020016000206000820151816000019080519060200190610a2a929190611bc2565b509050505050565b3373ffffffffffffffffffffffffffffffffffffffff168173ffffffffffffffffffffffffffffffffffffffff1614610aa0576040517f08c379a0000000000000000000000000000000000000000000000000000000008152600401610a9790612929565b60405180910390fd5b6001600360008373ffffffffffffffffffffffffffffffffffffffff1673ffffffffffffffffffffffffffffffffffffffff16815260200190815260200160002060030160009054906101000a900460ff1660ff161415610c54576000600360003373ffffffffffffffffffffffffffffffffffffffff1673ffffffffffffffffffffffffffffffffffffffff16815260200190815260200160002060020154905060405180608001604052808481526020018373ffffffffffffffffffffffffffffffffffffffff168152602001828152602001600160ff16815250600360008473ffffffffffffffffffffffffffffffffffffffff1673ffffffffffffffffffffffffffffffffffffffff1681526020019081526020016000206000820151816000019080519060200190610bd8929190611bc2565b5060208201518160010160006101000a81548173ffffffffffffffffffffffffffffffffffffffff021916908373ffffffffffffffffffffffffffffffffffffffff1602179055506040820151816002015560608201518160030160006101000a81548160ff021916908360ff16021790555090505050610dde565b6005819080600181540180825580915050600190039060005260206000200160009091909190916101000a81548173ffffffffffffffffffffffffffffffffffffffff021916908373ffffffffffffffffffffffffffffffffffffffff16021790555060026000815480929190610cca90612894565b919050555060405180608001604052808381526020018273ffffffffffffffffffffffffffffffffffffffff1681526020016002548152602001600160ff16815250600360008373ffffffffffffffffffffffffffffffffffffffff1673ffffffffffffffffffffffffffffffffffffffff1681526020019081526020016000206000820151816000019080519060200190610d67929190611bc2565b5060208201518160010160006101000a81548173ffffffffffffffffffffffffffffffffffffffff021916908373ffffffffffffffffffffffffffffffffffffffff1602179055506040820151816002015560608201518160030160006101000a81548160ff021916908360ff1602179055509050505b5050565b6004602052806000526040600020600091509050806000018054610e0590612833565b80601f0160208091040260200160405190810160405280929190818152602001828054610e3190612833565b8015610e7e5780601f10610e5357610100808354040283529160200191610e7e565b820191906000526020600020905b815481529060010190602001808311610e6157829003601f168201915b5050505050905081565b60086020528160005260406000208181548110610ea457600080fd5b906000526020600020016000915091509054906101000a900473ffffffffffffffffffffffffffffffffffffffff1681565b8073ffffffffffffffffffffffffffffffffffffffff168273ffffffffffffffffffffffffffffffffffffffff161415610f45576040517f08c379a0000000000000000000000000000000000000000000000000000000008152600401610f3c90612995565b60405180910390fd5b600860008373ffffffffffffffffffffffffffffffffffffffff1673ffffffffffffffffffffffffffffffffffffffff168152602001908152602001600020819080600181540180825580915050600190039060005260206000200160009091909190916101000a81548173ffffffffffffffffffffffffffffffffffffffff021916908373ffffffffffffffffffffffffffffffffffffffff1602179055505050565b60603373ffffffffffffffffffffffffffffffffffffffff168273ffffffffffffffffffffffffffffffffffffffff1614611059576040517f08c379a000000000000000000000000000000000000000000000000000000000815260040161105090612929565b60405180910390fd5b6000805b600054811015611102578373ffffffffffffffffffffffffffffffffffffffff1660078281548110611092576110916127d5565b5b906000526020600020906005020160020160009054906101000a900473ffffffffffffffffffffffffffffffffffffffff1673ffffffffffffffffffffffffffffffffffffffff1614156110ef5781806110eb90612894565b9250505b80806110fa90612894565b91505061105d565b5060008167ffffffffffffffff81111561111f5761111e61215d565b5b60405190808252806020026020018201604052801561115857816020015b611145611c48565b81526020019060019003908161113d5790505b5090506000805b6000548110156113dd578573ffffffffffffffffffffffffffffffffffffffff1660078281548110611194576111936127d5565b5b906000526020600020906005020160020160009054906101000a900473ffffffffffffffffffffffffffffffffffffffff1673ffffffffffffffffffffffffffffffffffffffff1614156113ca57600781815481106111f6576111f56127d5565b5b90600052602060002090600502016040518060a001604052908160008201805461121f90612833565b80601f016020809104026020016040519081016040528092919081815260200182805461124b90612833565b80156112985780601f1061126d57610100808354040283529160200191611298565b820191906000526020600020905b81548152906001019060200180831161127b57829003601f168201915b505050505081526020016001820180546112b190612833565b80601f01602080910402602001604051908101604052809291908181526020018280546112dd90612833565b801561132a5780601f106112ff5761010080835404028352916020019161132a565b820191906000526020600020905b81548152906001019060200180831161130d57829003601f168201915b505050505081526020016002820160009054906101000a900473ffffffffffffffffffffffffffffffffffffffff1673ffffffffffffffffffffffffffffffffffffffff1673ffffffffffffffffffffffffffffffffffffffff168152602001600382015481526020016004820154815250508383815181106113b0576113af6127d5565b5b602002602001018190525081806113c690612894565b9250505b80806113d590612894565b91505061115f565b50819350505050919050565b600160008154809291906113fc90612894565b919050555060078281548110611415576114146127d5565b5b9060005260206000209060050201600401600081548092919061143790612894565b9190505550600660405180606001604052808381526020018481526020013373ffffffffffffffffffffffffffffffffffffffff16815250908060018154018082558091505060019003906000526020600020906003020160009091909190915060008201518160000190805190602001906114b4929190611bc2565b506020820151816001015560408201518160020160006101000a81548173ffffffffffffffffffffffffffffffffffffffff021916908373ffffffffffffffffffffffffffffffffffffffff16021790555050505050565b60025481565b606060006007838154811061152a576115296127d5565b5b90600052602060002090600502016004015467ffffffffffffffff8111156115555761155461215d565b5b60405190808252806020026020018201604052801561158857816020015b60608152602001906001900390816115735790505b509050600080600090505b6001548110156116b65784600682815481106115b2576115b16127d5565b5b90600052602060002090600302016001015414156116a357600681815481106115de576115dd6127d5565b5b906000526020600020906003020160000180546115fa90612833565b80601f016020809104026020016040519081016040528092919081815260200182805461162690612833565b80156116735780601f1061164857610100808354040283529160200191611673565b820191906000526020600020905b81548152906001019060200180831161165657829003601f168201915b505050505083838061168490612894565b945081518110611697576116966127d5565b5b60200260200101819052505b80806116ae90612894565b915050611593565b508192505050919050565b60005481565b3373ffffffffffffffffffffffffffffffffffffffff168373ffffffffffffffffffffffffffffffffffffffff1614611735576040517f08c379a000000000000000000000000000000000000000000000000000000000815260040161172c90612929565b60405180910390fd5b60008081548092919061174790612894565b919050555060076040518060a001604052808481526020018381526020018573ffffffffffffffffffffffffffffffffffffffff16815260200160005481526020016000815250908060018154018082558091505060019003906000526020600020906005020160009091909190915060008201518160000190805190602001906117d3929190611bc2565b5060208201518160010190805190602001906117f0929190611bc2565b5060408201518160020160006101000a81548173ffffffffffffffffffffffffffffffffffffffff021916908373ffffffffffffffffffffffffffffffffffffffff16021790555060608201518160030155608082015181600401555050505050565b6060600860008373ffffffffffffffffffffffffffffffffffffffff1673ffffffffffffffffffffffffffffffffffffffff16815260200190815260200160002080548060200260200160405190810160405280929190818152602001828054801561191457602002820191906000526020600020905b8160009054906101000a900473ffffffffffffffffffffffffffffffffffffffff1673ffffffffffffffffffffffffffffffffffffffff16815260200190600101908083116118ca575b50505050509050919050565b6007818154811061193057600080fd5b906000526020600020906005020160009150905080600001805461195390612833565b80601f016020809104026020016040519081016040528092919081815260200182805461197f90612833565b80156119cc5780601f106119a1576101008083540402835291602001916119cc565b820191906000526020600020905b8154815290600101906020018083116119af57829003601f168201915b5050505050908060010180546119e190612833565b80601f0160208091040260200160405190810160405280929190818152602001828054611a0d90612833565b8015611a5a5780601f10611a2f57610100808354040283529160200191611a5a565b820191906000526020600020905b815481529060010190602001808311611a3d57829003601f168201915b5050505050908060020160009054906101000a900473ffffffffffffffffffffffffffffffffffffffff16908060030154908060040154905085565b6003602052806000526040600020600091509050806000018054611ab990612833565b80601f0160208091040260200160405190810160405280929190818152602001828054611ae590612833565b8015611b325780601f10611b0757610100808354040283529160200191611b32565b820191906000526020600020905b815481529060010190602001808311611b1557829003601f168201915b5050505050908060010160009054906101000a900473ffffffffffffffffffffffffffffffffffffffff16908060020154908060030160009054906101000a900460ff16905084565b60015481565b604051806080016040528060608152602001600073ffffffffffffffffffffffffffffffffffffffff16815260200160008152602001600060ff1681525090565b828054611bce90612833565b90600052602060002090601f016020900481019282611bf05760008555611c37565b82601f10611c0957805160ff1916838001178555611c37565b82800160010185558215611c37579182015b82811115611c36578251825591602001919060010190611c1b565b5b509050611c449190611c8d565b5090565b6040518060a001604052806060815260200160608152602001600073ffffffffffffffffffffffffffffffffffffffff16815260200160008152602001600081525090565b5b80821115611ca6576000816000905550600101611c8e565b5090565b600081519050919050565b600082825260208201905092915050565b6000819050602082019050919050565b600081519050919050565b600082825260208201905092915050565b60005b83811015611d10578082015181840152602081019050611cf5565b83811115611d1f576000848401525b50505050565b6000601f19601f8301169050919050565b6000611d4182611cd6565b611d4b8185611ce1565b9350611d5b818560208601611cf2565b611d6481611d25565b840191505092915050565b600073ffffffffffffffffffffffffffffffffffffffff82169050919050565b6000611d9a82611d6f565b9050919050565b611daa81611d8f565b82525050565b6000819050919050565b611dc381611db0565b82525050565b600060ff82169050919050565b611ddf81611dc9565b82525050565b60006080830160008301518482036000860152611e028282611d36565b9150506020830151611e176020860182611da1565b506040830151611e2a6040860182611dba565b506060830151611e3d6060860182611dd6565b508091505092915050565b6000611e548383611de5565b905092915050565b6000602082019050919050565b6000611e7482611caa565b611e7e8185611cb5565b935083602082028501611e9085611cc6565b8060005b85811015611ecc5784840389528151611ead8582611e48565b9450611eb883611e5c565b925060208a01995050600181019050611e94565b50829750879550505050505092915050565b60006020820190508181036000830152611ef88184611e69565b905092915050565b6000604051905090565b600080fd5b600080fd5b611f1d81611d8f565b8114611f2857600080fd5b50565b600081359050611f3a81611f14565b92915050565b600060208284031215611f5657611f55611f0a565b5b6000611f6484828501611f2b565b91505092915050565b60006080830160008301518482036000860152611f8a8282611d36565b9150506020830151611f9f6020860182611da1565b506040830151611fb26040860182611dba565b506060830151611fc56060860182611dd6565b508091505092915050565b60006020820190508181036000830152611fea8184611f6d565b905092915050565b600081519050919050565b600082825260208201905092915050565b6000819050602082019050919050565b600060a083016000830151848203600086015261203b8282611d36565b915050602083015184820360208601526120558282611d36565b915050604083015161206a6040860182611da1565b50606083015161207d6060860182611dba565b5060808301516120906080860182611dba565b508091505092915050565b60006120a7838361201e565b905092915050565b6000602082019050919050565b60006120c782611ff2565b6120d18185611ffd565b9350836020820285016120e38561200e565b8060005b8581101561211f5784840389528151612100858261209b565b945061210b836120af565b925060208a019950506001810190506120e7565b50829750879550505050505092915050565b6000602082019050818103600083015261214b81846120bc565b905092915050565b600080fd5b600080fd5b7f4e487b7100000000000000000000000000000000000000000000000000000000600052604160045260246000fd5b61219582611d25565b810181811067ffffffffffffffff821117156121b4576121b361215d565b5b80604052505050565b60006121c7611f00565b90506121d3828261218c565b919050565b600067ffffffffffffffff8211156121f3576121f261215d565b5b6121fc82611d25565b9050602081019050919050565b82818337600083830152505050565b600061222b612226846121d8565b6121bd565b90508281526020810184848401111561224757612246612158565b5b612252848285612209565b509392505050565b600082601f83011261226f5761226e612153565b5b813561227f848260208601612218565b91505092915050565b6000806040838503121561229f5761229e611f0a565b5b600083013567ffffffffffffffff8111156122bd576122bc611f0f565b5b6122c98582860161225a565b92505060206122da85828601611f2b565b9150509250929050565b600082825260208201905092915050565b600061230082611cd6565b61230a81856122e4565b935061231a818560208601611cf2565b61232381611d25565b840191505092915050565b6000602082019050818103600083015261234881846122f5565b905092915050565b61235981611db0565b811461236457600080fd5b50565b60008135905061237681612350565b92915050565b6000806040838503121561239357612392611f0a565b5b60006123a185828601611f2b565b92505060206123b285828601612367565b9150509250929050565b6123c581611d8f565b82525050565b60006020820190506123e060008301846123bc565b92915050565b600080604083850312156123fd576123fc611f0a565b5b600061240b85828601611f2b565b925050602061241c85828601611f2b565b9150509250929050565b6000806040838503121561243d5761243c611f0a565b5b600061244b85828601612367565b925050602083013567ffffffffffffffff81111561246c5761246b611f0f565b5b6124788582860161225a565b9150509250929050565b61248b81611db0565b82525050565b60006020820190506124a66000830184612482565b92915050565b6000602082840312156124c2576124c1611f0a565b5b60006124d084828501612367565b91505092915050565b600081519050919050565b600082825260208201905092915050565b6000819050602082019050919050565b60006125118383611d36565b905092915050565b6000602082019050919050565b6000612531826124d9565b61253b81856124e4565b93508360208202850161254d856124f5565b8060005b85811015612589578484038952815161256a8582612505565b945061257583612519565b925060208a01995050600181019050612551565b50829750879550505050505092915050565b600060208201905081810360008301526125b58184612526565b905092915050565b6000806000606084860312156125d6576125d5611f0a565b5b60006125e486828701611f2b565b935050602084013567ffffffffffffffff81111561260557612604611f0f565b5b6126118682870161225a565b925050604084013567ffffffffffffffff81111561263257612631611f0f565b5b61263e8682870161225a565b9150509250925092565b600081519050919050565b600082825260208201905092915050565b6000819050602082019050919050565b60006126808383611da1565b60208301905092915050565b6000602082019050919050565b60006126a482612648565b6126ae8185612653565b93506126b983612664565b8060005b838110156126ea5781516126d18882612674565b97506126dc8361268c565b9250506001810190506126bd565b5085935050505092915050565b600060208201905081810360008301526127118184612699565b905092915050565b600060a082019050818103600083015261273381886122f5565b9050818103602083015261274781876122f5565b905061275660408301866123bc565b6127636060830185612482565b6127706080830184612482565b9695505050505050565b61278381611dc9565b82525050565b600060808201905081810360008301526127a381876122f5565b90506127b260208301866123bc565b6127bf6040830185612482565b6127cc606083018461277a565b95945050505050565b7f4e487b7100000000000000000000000000000000000000000000000000000000600052603260045260246000fd5b7f4e487b7100000000000000000000000000000000000000000000000000000000600052602260045260246000fd5b6000600282049050600182168061284b57607f821691505b6020821081141561285f5761285e612804565b5b50919050565b7f4e487b7100000000000000000000000000000000000000000000000000000000600052601160045260246000fd5b600061289f82611db0565b91507fffffffffffffffffffffffffffffffffffffffffffffffffffffffffffffffff8214156128d2576128d1612865565b5b600182019050919050565b7f4163636573732064656e69656400000000000000000000000000000000000000600082015250565b6000612913600d836122e4565b915061291e826128dd565b602082019050919050565b6000602082019050818103600083015261294281612906565b9050919050565b7f43616e6e6f7420666f6c6c6f7720796f757273656c6600000000000000000000600082015250565b600061297f6016836122e4565b915061298a82612949565b602082019050919050565b600060208201905081810360008301526129ae81612972565b905091905056fea2646970667358221220be091b35d671411d8c0ebfae7b829eb8e1bcaa14f1f1a6a81dd81f7c4be92fe664736f6c63430008090033",
  "linkReferences": {},
  "deployedLinkReferences": {}
}