{
  "_format": "hh-sol-artifact-1",
  "contractName": "SocialMedia",
  "sourceName": "contracts/SocialMedia.sol",
  "abi": [
    {
      "inputs": [
        {
          "internalType": "address",
          "name": "",
          "type": "address"
        }
      ],
      "name": "_account",
      "outputs": [
        {
          "internalType": "string",
          "name": "name",
          "type": "string"
        },
        {
          "internalType": "string",
          "name": "username",
          "type": "string"
        },
        {
          "internalType": "string",
          "name": "phonenum",
          "type": "string"
        },
        {
          "internalType": "string",
          "name": "email",
          "type": "string"
        },
        {
          "internalType": "string",
          "name": "bio",
          "type": "string"
        },
        {
          "internalType": "string",
          "name": "gender",
          "type": "string"
        },
        {
          "internalType": "address",
          "name": "userId",
          "type": "address"
        },
        {
          "internalType": "uint256",
          "name": "userNum",
          "type": "uint256"
        },
        {
          "internalType": "uint8",
          "name": "flag",
          "type": "uint8"
        }
      ],
      "stateMutability": "view",
      "type": "function"
    },
    {
      "inputs": [
        {
          "internalType": "address",
          "name": "",
          "type": "address"
        },
        {
          "internalType": "uint256",
          "name": "",
          "type": "uint256"
        }
      ],
      "name": "_followers",
      "outputs": [
        {
          "internalType": "address",
          "name": "pubkey",
          "type": "address"
        },
        {
          "internalType": "string",
          "name": "name",
          "type": "string"
        },
        {
          "internalType": "string",
          "name": "username",
          "type": "string"
        }
      ],
      "stateMutability": "view",
      "type": "function"
    },
    {
      "inputs": [
        {
          "internalType": "address",
          "name": "",
          "type": "address"
        }
      ],
      "name": "_picture",
      "outputs": [
        {
          "internalType": "string",
          "name": "pictureCid",
          "type": "string"
        }
      ],
      "stateMutability": "view",
      "type": "function"
    },
    {
      "inputs": [
        {
          "internalType": "uint256",
          "name": "postId",
          "type": "uint256"
        },
        {
          "internalType": "string",
          "name": "content",
          "type": "string"
        }
      ],
      "name": "addComment",
      "outputs": [],
      "stateMutability": "nonpayable",
      "type": "function"
    },
    {
      "inputs": [
        {
          "internalType": "address",
          "name": "wallet",
          "type": "address"
        },
        {
          "internalType": "string",
          "name": "p_hash",
          "type": "string"
        },
        {
          "internalType": "string",
          "name": "img_hash",
          "type": "string"
        }
      ],
      "name": "addPost",
      "outputs": [],
      "stateMutability": "nonpayable",
      "type": "function"
    },
    {
      "inputs": [],
      "name": "comment_count",
      "outputs": [
        {
          "internalType": "uint256",
          "name": "",
          "type": "uint256"
        }
      ],
      "stateMutability": "view",
      "type": "function"
    },
    {
      "inputs": [
        {
          "internalType": "address",
          "name": "wallet",
          "type": "address"
        },
        {
          "internalType": "address",
          "name": "follower",
          "type": "address"
        }
      ],
      "name": "follow",
      "outputs": [],
      "stateMutability": "nonpayable",
      "type": "function"
    },
    {
      "inputs": [],
      "name": "getAllProfiles",
      "outputs": [
        {
          "components": [
            {
              "internalType": "string",
              "name": "name",
              "type": "string"
            },
            {
              "internalType": "string",
              "name": "username",
              "type": "string"
            },
            {
              "internalType": "string",
              "name": "phonenum",
              "type": "string"
            },
            {
              "internalType": "string",
              "name": "email",
              "type": "string"
            },
            {
              "internalType": "string",
              "name": "bio",
              "type": "string"
            },
            {
              "internalType": "string",
              "name": "gender",
              "type": "string"
            },
            {
              "internalType": "address",
              "name": "userId",
              "type": "address"
            },
            {
              "internalType": "uint256",
              "name": "userNum",
              "type": "uint256"
            },
            {
              "internalType": "uint8",
              "name": "flag",
              "type": "uint8"
            }
          ],
          "internalType": "struct SocialMedia.userAccount[]",
          "name": "",
          "type": "tuple[]"
        }
      ],
      "stateMutability": "view",
      "type": "function"
    },
    {
      "inputs": [
        {
          "internalType": "address",
          "name": "wallet",
          "type": "address"
        }
      ],
      "name": "getFollowers",
      "outputs": [
        {
          "components": [
            {
              "internalType": "address",
              "name": "pubkey",
              "type": "address"
            },
            {
              "internalType": "string",
              "name": "name",
              "type": "string"
            },
            {
              "internalType": "string",
              "name": "username",
              "type": "string"
            }
          ],
          "internalType": "struct SocialMedia.friend[]",
          "name": "",
          "type": "tuple[]"
        }
      ],
      "stateMutability": "view",
      "type": "function"
    },
    {
      "inputs": [
        {
          "internalType": "address",
          "name": "wallet",
          "type": "address"
        }
      ],
      "name": "getProfile",
      "outputs": [
        {
          "components": [
            {
              "internalType": "string",
              "name": "name",
              "type": "string"
            },
            {
              "internalType": "string",
              "name": "username",
              "type": "string"
            },
            {
              "internalType": "string",
              "name": "phonenum",
              "type": "string"
            },
            {
              "internalType": "string",
              "name": "email",
              "type": "string"
            },
            {
              "internalType": "string",
              "name": "bio",
              "type": "string"
            },
            {
              "internalType": "string",
              "name": "gender",
              "type": "string"
            },
            {
              "internalType": "address",
              "name": "userId",
              "type": "address"
            },
            {
              "internalType": "uint256",
              "name": "userNum",
              "type": "uint256"
            },
            {
              "internalType": "uint8",
              "name": "flag",
              "type": "uint8"
            }
          ],
          "internalType": "struct SocialMedia.userAccount",
          "name": "",
          "type": "tuple"
        }
      ],
      "stateMutability": "view",
      "type": "function"
    },
    {
      "inputs": [
        {
          "internalType": "uint256",
          "name": "",
          "type": "uint256"
        }
      ],
      "name": "post",
      "outputs": [
        {
          "internalType": "string",
          "name": "postText",
          "type": "string"
        },
        {
          "internalType": "string",
          "name": "imgUrl",
          "type": "string"
        },
        {
          "internalType": "address",
          "name": "userId",
          "type": "address"
        },
        {
          "internalType": "uint256",
          "name": "postNum",
          "type": "uint256"
        },
        {
          "internalType": "uint256",
          "name": "cmtcount",
          "type": "uint256"
        }
      ],
      "stateMutability": "view",
      "type": "function"
    },
    {
      "inputs": [],
      "name": "post_count",
      "outputs": [
        {
          "internalType": "uint256",
          "name": "",
          "type": "uint256"
        }
      ],
      "stateMutability": "view",
      "type": "function"
    },
    {
      "inputs": [
        {
          "internalType": "address",
          "name": "friendkey",
          "type": "address"
        }
      ],
      "name": "readMessage",
      "outputs": [
        {
          "components": [
            {
              "internalType": "address",
              "name": "sender",
              "type": "address"
            },
            {
              "internalType": "uint256",
              "name": "timestamp",
              "type": "uint256"
            },
            {
              "internalType": "string",
              "name": "message",
              "type": "string"
            }
          ],
          "internalType": "struct SocialMedia.message[]",
          "name": "",
          "type": "tuple[]"
        }
      ],
      "stateMutability": "view",
      "type": "function"
    },
    {
      "inputs": [
        {
          "internalType": "address",
          "name": "friendkey",
          "type": "address"
        },
        {
          "internalType": "string",
          "name": "_msg",
          "type": "string"
        }
      ],
      "name": "sendMessage",
      "outputs": [],
      "stateMutability": "nonpayable",
      "type": "function"
    },
    {
      "inputs": [
        {
          "internalType": "string",
          "name": "newPCid",
          "type": "string"
        },
        {
          "internalType": "address",
          "name": "wallet",
          "type": "address"
        }
      ],
      "name": "updatePicture",
      "outputs": [],
      "stateMutability": "nonpayable",
      "type": "function"
    },
    {
      "inputs": [
        {
          "internalType": "string",
          "name": "user_name",
          "type": "string"
        },
        {
          "internalType": "string",
          "name": "uname",
          "type": "string"
        },
        {
          "internalType": "string",
          "name": "phone",
          "type": "string"
        },
        {
          "internalType": "string",
          "name": "user_email",
          "type": "string"
        },
        {
          "internalType": "string",
          "name": "user_bio",
          "type": "string"
        },
        {
          "internalType": "string",
          "name": "user_gender",
          "type": "string"
        },
        {
          "internalType": "address",
          "name": "wallet",
          "type": "address"
        }
      ],
      "name": "updateProfile",
      "outputs": [],
      "stateMutability": "nonpayable",
      "type": "function"
    },
    {
      "inputs": [],
      "name": "user_count",
      "outputs": [
        {
          "internalType": "uint256",
          "name": "",
          "type": "uint256"
        }
      ],
      "stateMutability": "view",
      "type": "function"
    },
    {
      "inputs": [],
      "name": "viewPost",
      "outputs": [
        {
          "components": [
            {
              "internalType": "string",
              "name": "postText",
              "type": "string"
            },
            {
              "internalType": "string",
              "name": "imgUrl",
              "type": "string"
            },
            {
              "internalType": "address",
              "name": "userId",
              "type": "address"
            },
            {
              "internalType": "uint256",
              "name": "postNum",
              "type": "uint256"
            },
            {
              "internalType": "uint256",
              "name": "cmtcount",
              "type": "uint256"
            }
          ],
          "internalType": "struct SocialMedia.userPost[]",
          "name": "",
          "type": "tuple[]"
        }
      ],
      "stateMutability": "view",
      "type": "function"
    },
    {
      "inputs": [
        {
          "internalType": "uint256",
          "name": "postId",
          "type": "uint256"
        }
      ],
      "name": "viewPostComment",
      "outputs": [
        {
          "internalType": "string[]",
          "name": "",
          "type": "string[]"
        }
      ],
      "stateMutability": "view",
      "type": "function"
    },
    {
      "inputs": [
        {
          "internalType": "address",
          "name": "wallet",
          "type": "address"
        }
      ],
      "name": "viewUserPost",
      "outputs": [
        {
          "components": [
            {
              "internalType": "string",
              "name": "postText",
              "type": "string"
            },
            {
              "internalType": "string",
              "name": "imgUrl",
              "type": "string"
            },
            {
              "internalType": "address",
              "name": "userId",
              "type": "address"
            },
            {
              "internalType": "uint256",
              "name": "postNum",
              "type": "uint256"
            },
            {
              "internalType": "uint256",
              "name": "cmtcount",
              "type": "uint256"
            }
          ],
          "internalType": "struct SocialMedia.userPost[]",
          "name": "",
          "type": "tuple[]"
        }
      ],
      "stateMutability": "view",
      "type": "function"
    }
  ],
  "bytecode": "0x608060405234801561001057600080fd5b506141f2806100206000396000f3fe608060405234801561001057600080fd5b506004361061012c5760003560e01c8063aa7e5683116100ad578063c2fe202211610071578063c2fe202214610357578063caa5863c14610387578063cb0e55a8146103bb578063de6f24bb146103f3578063ffc566961461040f5761012c565b8063aa7e5683146102b3578063bb805f69146102cf578063bc153105146102ed578063c21d71c71461031d578063c264ea431461033b5761012c565b8063477c1968116100f4578063477c1968146101e95780636b6042d1146102195780639068f2c71461023557806399d147c2146102675780639cd90a11146102835761012c565b80630b1fe784146101315780630f53a4701461014f578063255e9c111461017f5780632592f096146101af5780632ae025e0146101cd575b600080fd5b61013961042d565b60405161014691906131af565b60405180910390f35b61016960048036038101906101649190613211565b610941565b6040516101769190613326565b60405180910390f35b61019960048036038101906101949190613211565b610d84565b6040516101a6919061345a565b60405180910390f35b6101b7610ef7565b6040516101c491906135bb565b60405180910390f35b6101e760048036038101906101e29190613712565b6110e4565b005b61020360048036038101906101fe9190613211565b6111c4565b60405161021091906137b8565b60405180910390f35b610233600480360381019061022e91906137da565b61126a565b005b61024f600480360381019061024a9190613950565b611781565b60405161025e9392919061399f565b60405180910390f35b610281600480360381019061027c91906139e4565b6118f8565b005b61029d60048036038101906102989190613211565b611c2d565b6040516102aa91906135bb565b60405180910390f35b6102cd60048036038101906102c89190613a24565b61202d565b005b6102d7612150565b6040516102e49190613a8f565b60405180910390f35b61030760048036038101906103029190613aaa565b612156565b6040516103149190613b99565b60405180910390f35b610325612305565b6040516103329190613a8f565b60405180910390f35b61035560048036038101906103509190613bbb565b61230b565b005b610371600480360381019061036c9190613211565b612497565b60405161037e9190613d5f565b60405180910390f35b6103a1600480360381019061039c9190613aaa565b6126af565b6040516103b2959493929190613d81565b60405180910390f35b6103d560048036038101906103d09190613211565b612825565b6040516103ea99989796959493929190613df1565b60405180910390f35b61040d60048036038101906104089190613f08565b612bd0565b005b610417612d0b565b6040516104249190613a8f565b60405180910390f35b6060600060025467ffffffffffffffff81111561044d5761044c6135e7565b5b60405190808252806020026020018201604052801561048657816020015b610473612da9565b81526020019060019003908161046b5790505b50905060005b6002548110156109395760076000600383815481106104ae576104ad613f68565b5b9060005260206000200160009054906101000a900473ffffffffffffffffffffffffffffffffffffffff1673ffffffffffffffffffffffffffffffffffffffff1673ffffffffffffffffffffffffffffffffffffffff1681526020019081526020016000206040518061012001604052908160008201805461052f90613fc6565b80601f016020809104026020016040519081016040528092919081815260200182805461055b90613fc6565b80156105a85780601f1061057d576101008083540402835291602001916105a8565b820191906000526020600020905b81548152906001019060200180831161058b57829003601f168201915b505050505081526020016001820180546105c190613fc6565b80601f01602080910402602001604051908101604052809291908181526020018280546105ed90613fc6565b801561063a5780601f1061060f5761010080835404028352916020019161063a565b820191906000526020600020905b81548152906001019060200180831161061d57829003601f168201915b5050505050815260200160028201805461065390613fc6565b80601f016020809104026020016040519081016040528092919081815260200182805461067f90613fc6565b80156106cc5780601f106106a1576101008083540402835291602001916106cc565b820191906000526020600020905b8154815290600101906020018083116106af57829003601f168201915b505050505081526020016003820180546106e590613fc6565b80601f016020809104026020016040519081016040528092919081815260200182805461071190613fc6565b801561075e5780601f106107335761010080835404028352916020019161075e565b820191906000526020600020905b81548152906001019060200180831161074157829003601f168201915b5050505050815260200160048201805461077790613fc6565b80601f01602080910402602001604051908101604052809291908181526020018280546107a390613fc6565b80156107f05780601f106107c5576101008083540402835291602001916107f0565b820191906000526020600020905b8154815290600101906020018083116107d357829003601f168201915b5050505050815260200160058201805461080990613fc6565b80601f016020809104026020016040519081016040528092919081815260200182805461083590613fc6565b80156108825780601f1061085757610100808354040283529160200191610882565b820191906000526020600020905b81548152906001019060200180831161086557829003601f168201915b505050505081526020016006820160009054906101000a900473ffffffffffffffffffffffffffffffffffffffff1673ffffffffffffffffffffffffffffffffffffffff1673ffffffffffffffffffffffffffffffffffffffff168152602001600782015481526020016008820160009054906101000a900460ff1660ff1660ff168152505082828151811061091b5761091a613f68565b5b6020026020010181905250808061093190614027565b91505061048c565b508091505090565b610949612da9565b600760008373ffffffffffffffffffffffffffffffffffffffff1673ffffffffffffffffffffffffffffffffffffffff168152602001908152602001600020604051806101200160405290816000820180546109a490613fc6565b80601f01602080910402602001604051908101604052809291908181526020018280546109d090613fc6565b8015610a1d5780601f106109f257610100808354040283529160200191610a1d565b820191906000526020600020905b815481529060010190602001808311610a0057829003601f168201915b50505050508152602001600182018054610a3690613fc6565b80601f0160208091040260200160405190810160405280929190818152602001828054610a6290613fc6565b8015610aaf5780601f10610a8457610100808354040283529160200191610aaf565b820191906000526020600020905b815481529060010190602001808311610a9257829003601f168201915b50505050508152602001600282018054610ac890613fc6565b80601f0160208091040260200160405190810160405280929190818152602001828054610af490613fc6565b8015610b415780601f10610b1657610100808354040283529160200191610b41565b820191906000526020600020905b815481529060010190602001808311610b2457829003601f168201915b50505050508152602001600382018054610b5a90613fc6565b80601f0160208091040260200160405190810160405280929190818152602001828054610b8690613fc6565b8015610bd35780601f10610ba857610100808354040283529160200191610bd3565b820191906000526020600020905b815481529060010190602001808311610bb657829003601f168201915b50505050508152602001600482018054610bec90613fc6565b80601f0160208091040260200160405190810160405280929190818152602001828054610c1890613fc6565b8015610c655780601f10610c3a57610100808354040283529160200191610c65565b820191906000526020600020905b815481529060010190602001808311610c4857829003601f168201915b50505050508152602001600582018054610c7e90613fc6565b80601f0160208091040260200160405190810160405280929190818152602001828054610caa90613fc6565b8015610cf75780601f10610ccc57610100808354040283529160200191610cf7565b820191906000526020600020905b815481529060010190602001808311610cda57829003601f168201915b505050505081526020016006820160009054906101000a900473ffffffffffffffffffffffffffffffffffffffff1673ffffffffffffffffffffffffffffffffffffffff1673ffffffffffffffffffffffffffffffffffffffff168152602001600782015481526020016008820160009054906101000a900460ff1660ff1660ff16815250509050919050565b60606000610d923384612d11565b905060096000828152602001908152602001600020805480602002602001604051908101604052809291908181526020016000905b82821015610eeb57838290600052602060002090600302016040518060600160405290816000820160009054906101000a900473ffffffffffffffffffffffffffffffffffffffff1673ffffffffffffffffffffffffffffffffffffffff1673ffffffffffffffffffffffffffffffffffffffff16815260200160018201548152602001600282018054610e5a90613fc6565b80601f0160208091040260200160405190810160405280929190818152602001828054610e8690613fc6565b8015610ed35780601f10610ea857610100808354040283529160200191610ed3565b820191906000526020600020905b815481529060010190602001808311610eb657829003601f168201915b50505050508152505081526020019060010190610dc7565b50505050915050919050565b60606005805480602002602001604051908101604052809291908181526020016000905b828210156110db57838290600052602060002090600502016040518060a0016040529081600082018054610f4e90613fc6565b80601f0160208091040260200160405190810160405280929190818152602001828054610f7a90613fc6565b8015610fc75780601f10610f9c57610100808354040283529160200191610fc7565b820191906000526020600020905b815481529060010190602001808311610faa57829003601f168201915b50505050508152602001600182018054610fe090613fc6565b80601f016020809104026020016040519081016040528092919081815260200182805461100c90613fc6565b80156110595780601f1061102e57610100808354040283529160200191611059565b820191906000526020600020905b81548152906001019060200180831161103c57829003601f168201915b505050505081526020016002820160009054906101000a900473ffffffffffffffffffffffffffffffffffffffff1673ffffffffffffffffffffffffffffffffffffffff1673ffffffffffffffffffffffffffffffffffffffff1681526020016003820154815260200160048201548152505081526020019060010190610f1b565b50505050905090565b3373ffffffffffffffffffffffffffffffffffffffff168173ffffffffffffffffffffffffffffffffffffffff1614611152576040517f08c379a0000000000000000000000000000000000000000000000000000000008152600401611149906140bc565b60405180910390fd5b604051806020016040528083815250600860008373ffffffffffffffffffffffffffffffffffffffff1673ffffffffffffffffffffffffffffffffffffffff16815260200190815260200160002060008201518160000190805190602001906111bc929190612e0e565b509050505050565b60086020528060005260406000206000915090508060000180546111e790613fc6565b80601f016020809104026020016040519081016040528092919081815260200182805461121390613fc6565b80156112605780601f1061123557610100808354040283529160200191611260565b820191906000526020600020905b81548152906001019060200180831161124357829003601f168201915b5050505050905081565b3373ffffffffffffffffffffffffffffffffffffffff168173ffffffffffffffffffffffffffffffffffffffff16146112d8576040517f08c379a00000000000000000000000000000000000000000000000000000000081526004016112cf906140bc565b60405180910390fd5b6001600760008373ffffffffffffffffffffffffffffffffffffffff1673ffffffffffffffffffffffffffffffffffffffff16815260200190815260200160002060080160009054906101000a900460ff1660ff16141561153d576000600760003373ffffffffffffffffffffffffffffffffffffffff1673ffffffffffffffffffffffffffffffffffffffff1681526020019081526020016000206007015490506040518061012001604052808981526020018881526020018781526020018681526020018581526020018481526020018373ffffffffffffffffffffffffffffffffffffffff168152602001828152602001600160ff16815250600760008473ffffffffffffffffffffffffffffffffffffffff1673ffffffffffffffffffffffffffffffffffffffff168152602001908152602001600020600082015181600001908051906020019061142f929190612e0e565b50602082015181600101908051906020019061144c929190612e0e565b506040820151816002019080519060200190611469929190612e0e565b506060820151816003019080519060200190611486929190612e0e565b5060808201518160040190805190602001906114a3929190612e0e565b5060a08201518160050190805190602001906114c0929190612e0e565b5060c08201518160060160006101000a81548173ffffffffffffffffffffffffffffffffffffffff021916908373ffffffffffffffffffffffffffffffffffffffff16021790555060e082015181600701556101008201518160080160006101000a81548160ff021916908360ff16021790555090505050611778565b6003819080600181540180825580915050600190039060005260206000200160009091909190916101000a81548173ffffffffffffffffffffffffffffffffffffffff021916908373ffffffffffffffffffffffffffffffffffffffff160217905550600260008154809291906115b390614027565b91905055506040518061012001604052808881526020018781526020018681526020018581526020018481526020018381526020018273ffffffffffffffffffffffffffffffffffffffff1681526020016002548152602001600160ff16815250600760008373ffffffffffffffffffffffffffffffffffffffff1673ffffffffffffffffffffffffffffffffffffffff168152602001908152602001600020600082015181600001908051906020019061166f929190612e0e565b50602082015181600101908051906020019061168c929190612e0e565b5060408201518160020190805190602001906116a9929190612e0e565b5060608201518160030190805190602001906116c6929190612e0e565b5060808201518160040190805190602001906116e3929190612e0e565b5060a0820151816005019080519060200190611700929190612e0e565b5060c08201518160060160006101000a81548173ffffffffffffffffffffffffffffffffffffffff021916908373ffffffffffffffffffffffffffffffffffffffff16021790555060e082015181600701556101008201518160080160006101000a81548160ff021916908360ff1602179055509050505b50505050505050565b6006602052816000526040600020818154811061179d57600080fd5b9060005260206000209060030201600091509150508060000160009054906101000a900473ffffffffffffffffffffffffffffffffffffffff16908060010180546117e790613fc6565b80601f016020809104026020016040519081016040528092919081815260200182805461181390613fc6565b80156118605780601f1061183557610100808354040283529160200191611860565b820191906000526020600020905b81548152906001019060200180831161184357829003601f168201915b50505050509080600201805461187590613fc6565b80601f01602080910402602001604051908101604052809291908181526020018280546118a190613fc6565b80156118ee5780601f106118c3576101008083540402835291602001916118ee565b820191906000526020600020905b8154815290600101906020018083116118d157829003601f168201915b5050505050905083565b8073ffffffffffffffffffffffffffffffffffffffff168273ffffffffffffffffffffffffffffffffffffffff161415611967576040517f08c379a000000000000000000000000000000000000000000000000000000000815260040161195e90614128565b60405180910390fd5b6000600760008373ffffffffffffffffffffffffffffffffffffffff1673ffffffffffffffffffffffffffffffffffffffff16815260200190815260200160002060000180546119b690613fc6565b80601f01602080910402602001604051908101604052809291908181526020018280546119e290613fc6565b8015611a2f5780601f10611a0457610100808354040283529160200191611a2f565b820191906000526020600020905b815481529060010190602001808311611a1257829003601f168201915b505050505090506000600760008473ffffffffffffffffffffffffffffffffffffffff1673ffffffffffffffffffffffffffffffffffffffff1681526020019081526020016000206001018054611a8590613fc6565b80601f0160208091040260200160405190810160405280929190818152602001828054611ab190613fc6565b8015611afe5780601f10611ad357610100808354040283529160200191611afe565b820191906000526020600020905b815481529060010190602001808311611ae157829003601f168201915b50505050509050600060405180606001604052808573ffffffffffffffffffffffffffffffffffffffff168152602001848152602001838152509050600660008673ffffffffffffffffffffffffffffffffffffffff1673ffffffffffffffffffffffffffffffffffffffff16815260200190815260200160002081908060018154018082558091505060019003906000526020600020906003020160009091909190915060008201518160000160006101000a81548173ffffffffffffffffffffffffffffffffffffffff021916908373ffffffffffffffffffffffffffffffffffffffff1602179055506020820151816001019080519060200190611c06929190612e0e565b506040820151816002019080519060200190611c23929190612e0e565b5050505050505050565b60603373ffffffffffffffffffffffffffffffffffffffff168273ffffffffffffffffffffffffffffffffffffffff1614611c9d576040517f08c379a0000000000000000000000000000000000000000000000000000000008152600401611c94906140bc565b60405180910390fd5b6000805b600054811015611d46578373ffffffffffffffffffffffffffffffffffffffff1660058281548110611cd657611cd5613f68565b5b906000526020600020906005020160020160009054906101000a900473ffffffffffffffffffffffffffffffffffffffff1673ffffffffffffffffffffffffffffffffffffffff161415611d33578180611d2f90614027565b9250505b8080611d3e90614027565b915050611ca1565b5060008167ffffffffffffffff811115611d6357611d626135e7565b5b604051908082528060200260200182016040528015611d9c57816020015b611d89612e94565b815260200190600190039081611d815790505b5090506000805b600054811015612021578573ffffffffffffffffffffffffffffffffffffffff1660058281548110611dd857611dd7613f68565b5b906000526020600020906005020160020160009054906101000a900473ffffffffffffffffffffffffffffffffffffffff1673ffffffffffffffffffffffffffffffffffffffff16141561200e5760058181548110611e3a57611e39613f68565b5b90600052602060002090600502016040518060a0016040529081600082018054611e6390613fc6565b80601f0160208091040260200160405190810160405280929190818152602001828054611e8f90613fc6565b8015611edc5780601f10611eb157610100808354040283529160200191611edc565b820191906000526020600020905b815481529060010190602001808311611ebf57829003601f168201915b50505050508152602001600182018054611ef590613fc6565b80601f0160208091040260200160405190810160405280929190818152602001828054611f2190613fc6565b8015611f6e5780601f10611f4357610100808354040283529160200191611f6e565b820191906000526020600020905b815481529060010190602001808311611f5157829003601f168201915b505050505081526020016002820160009054906101000a900473ffffffffffffffffffffffffffffffffffffffff1673ffffffffffffffffffffffffffffffffffffffff1673ffffffffffffffffffffffffffffffffffffffff16815260200160038201548152602001600482015481525050838381518110611ff457611ff3613f68565b5b6020026020010181905250818061200a90614027565b9250505b808061201990614027565b915050611da3565b50819350505050919050565b6001600081548092919061204090614027565b91905055506005828154811061205957612058613f68565b5b9060005260206000209060050201600401600081548092919061207b90614027565b9190505550600460405180606001604052808381526020018481526020013373ffffffffffffffffffffffffffffffffffffffff16815250908060018154018082558091505060019003906000526020600020906003020160009091909190915060008201518160000190805190602001906120f8929190612e0e565b506020820151816001015560408201518160020160006101000a81548173ffffffffffffffffffffffffffffffffffffffff021916908373ffffffffffffffffffffffffffffffffffffffff16021790555050505050565b60025481565b606060006005838154811061216e5761216d613f68565b5b90600052602060002090600502016004015467ffffffffffffffff811115612199576121986135e7565b5b6040519080825280602002602001820160405280156121cc57816020015b60608152602001906001900390816121b75790505b509050600080600090505b6001548110156122fa5784600482815481106121f6576121f5613f68565b5b90600052602060002090600302016001015414156122e7576004818154811061222257612221613f68565b5b9060005260206000209060030201600001805461223e90613fc6565b80601f016020809104026020016040519081016040528092919081815260200182805461226a90613fc6565b80156122b75780601f1061228c576101008083540402835291602001916122b7565b820191906000526020600020905b81548152906001019060200180831161229a57829003601f168201915b50505050508383806122c890614027565b9450815181106122db576122da613f68565b5b60200260200101819052505b80806122f290614027565b9150506121d7565b508192505050919050565b60005481565b3373ffffffffffffffffffffffffffffffffffffffff168373ffffffffffffffffffffffffffffffffffffffff1614612379576040517f08c379a0000000000000000000000000000000000000000000000000000000008152600401612370906140bc565b60405180910390fd5b60008081548092919061238b90614027565b919050555060056040518060a001604052808481526020018381526020018573ffffffffffffffffffffffffffffffffffffffff1681526020016000548152602001600081525090806001815401808255809150506001900390600052602060002090600502016000909190919091506000820151816000019080519060200190612417929190612e0e565b506020820151816001019080519060200190612434929190612e0e565b5060408201518160020160006101000a81548173ffffffffffffffffffffffffffffffffffffffff021916908373ffffffffffffffffffffffffffffffffffffffff16021790555060608201518160030155608082015181600401555050505050565b6060600660008373ffffffffffffffffffffffffffffffffffffffff1673ffffffffffffffffffffffffffffffffffffffff168152602001908152602001600020805480602002602001604051908101604052809291908181526020016000905b828210156126a457838290600052602060002090600302016040518060600160405290816000820160009054906101000a900473ffffffffffffffffffffffffffffffffffffffff1673ffffffffffffffffffffffffffffffffffffffff1673ffffffffffffffffffffffffffffffffffffffff16815260200160018201805461258190613fc6565b80601f01602080910402602001604051908101604052809291908181526020018280546125ad90613fc6565b80156125fa5780601f106125cf576101008083540402835291602001916125fa565b820191906000526020600020905b8154815290600101906020018083116125dd57829003601f168201915b5050505050815260200160028201805461261390613fc6565b80601f016020809104026020016040519081016040528092919081815260200182805461263f90613fc6565b801561268c5780601f106126615761010080835404028352916020019161268c565b820191906000526020600020905b81548152906001019060200180831161266f57829003601f168201915b505050505081525050815260200190600101906124f8565b505050509050919050565b600581815481106126bf57600080fd5b90600052602060002090600502016000915090508060000180546126e290613fc6565b80601f016020809104026020016040519081016040528092919081815260200182805461270e90613fc6565b801561275b5780601f106127305761010080835404028352916020019161275b565b820191906000526020600020905b81548152906001019060200180831161273e57829003601f168201915b50505050509080600101805461277090613fc6565b80601f016020809104026020016040519081016040528092919081815260200182805461279c90613fc6565b80156127e95780601f106127be576101008083540402835291602001916127e9565b820191906000526020600020905b8154815290600101906020018083116127cc57829003601f168201915b5050505050908060020160009054906101000a900473ffffffffffffffffffffffffffffffffffffffff16908060030154908060040154905085565b600760205280600052604060002060009150905080600001805461284890613fc6565b80601f016020809104026020016040519081016040528092919081815260200182805461287490613fc6565b80156128c15780601f10612896576101008083540402835291602001916128c1565b820191906000526020600020905b8154815290600101906020018083116128a457829003601f168201915b5050505050908060010180546128d690613fc6565b80601f016020809104026020016040519081016040528092919081815260200182805461290290613fc6565b801561294f5780601f106129245761010080835404028352916020019161294f565b820191906000526020600020905b81548152906001019060200180831161293257829003601f168201915b50505050509080600201805461296490613fc6565b80601f016020809104026020016040519081016040528092919081815260200182805461299090613fc6565b80156129dd5780601f106129b2576101008083540402835291602001916129dd565b820191906000526020600020905b8154815290600101906020018083116129c057829003601f168201915b5050505050908060030180546129f290613fc6565b80601f0160208091040260200160405190810160405280929190818152602001828054612a1e90613fc6565b8015612a6b5780601f10612a4057610100808354040283529160200191612a6b565b820191906000526020600020905b815481529060010190602001808311612a4e57829003601f168201915b505050505090806004018054612a8090613fc6565b80601f0160208091040260200160405190810160405280929190818152602001828054612aac90613fc6565b8015612af95780601f10612ace57610100808354040283529160200191612af9565b820191906000526020600020905b815481529060010190602001808311612adc57829003601f168201915b505050505090806005018054612b0e90613fc6565b80601f0160208091040260200160405190810160405280929190818152602001828054612b3a90613fc6565b8015612b875780601f10612b5c57610100808354040283529160200191612b87565b820191906000526020600020905b815481529060010190602001808311612b6a57829003601f168201915b5050505050908060060160009054906101000a900473ffffffffffffffffffffffffffffffffffffffff16908060070154908060080160009054906101000a900460ff16905089565b6000612bdc3385612d11565b9050600060405180606001604052803373ffffffffffffffffffffffffffffffffffffffff16815260200142815260200185858080601f016020809104026020016040519081016040528093929190818152602001838380828437600081840152601f19601f8201169050808301925050505050505081525090506009600083815260200190815260200160002081908060018154018082558091505060019003906000526020600020906003020160009091909190915060008201518160000160006101000a81548173ffffffffffffffffffffffffffffffffffffffff021916908373ffffffffffffffffffffffffffffffffffffffff160217905550602082015181600101556040820151816002019080519060200190612d01929190612e0e565b5050505050505050565b60015481565b60008173ffffffffffffffffffffffffffffffffffffffff168373ffffffffffffffffffffffffffffffffffffffff161015612d77578282604051602001612d5a929190614190565b604051602081830303815290604052805190602001209050612da3565b8183604051602001612d8a929190614190565b6040516020818303038152906040528051906020012090505b92915050565b604051806101200160405280606081526020016060815260200160608152602001606081526020016060815260200160608152602001600073ffffffffffffffffffffffffffffffffffffffff16815260200160008152602001600060ff1681525090565b828054612e1a90613fc6565b90600052602060002090601f016020900481019282612e3c5760008555612e83565b82601f10612e5557805160ff1916838001178555612e83565b82800160010185558215612e83579182015b82811115612e82578251825591602001919060010190612e67565b5b509050612e909190612ed9565b5090565b6040518060a001604052806060815260200160608152602001600073ffffffffffffffffffffffffffffffffffffffff16815260200160008152602001600081525090565b5b80821115612ef2576000816000905550600101612eda565b5090565b600081519050919050565b600082825260208201905092915050565b6000819050602082019050919050565b600081519050919050565b600082825260208201905092915050565b60005b83811015612f5c578082015181840152602081019050612f41565b83811115612f6b576000848401525b50505050565b6000601f19601f8301169050919050565b6000612f8d82612f22565b612f978185612f2d565b9350612fa7818560208601612f3e565b612fb081612f71565b840191505092915050565b600073ffffffffffffffffffffffffffffffffffffffff82169050919050565b6000612fe682612fbb565b9050919050565b612ff681612fdb565b82525050565b6000819050919050565b61300f81612ffc565b82525050565b600060ff82169050919050565b61302b81613015565b82525050565b600061012083016000830151848203600086015261304f8282612f82565b915050602083015184820360208601526130698282612f82565b915050604083015184820360408601526130838282612f82565b9150506060830151848203606086015261309d8282612f82565b915050608083015184820360808601526130b78282612f82565b91505060a083015184820360a08601526130d18282612f82565b91505060c08301516130e660c0860182612fed565b5060e08301516130f960e0860182613006565b5061010083015161310e610100860182613022565b508091505092915050565b60006131258383613031565b905092915050565b6000602082019050919050565b600061314582612ef6565b61314f8185612f01565b93508360208202850161316185612f12565b8060005b8581101561319d578484038952815161317e8582613119565b94506131898361312d565b925060208a01995050600181019050613165565b50829750879550505050505092915050565b600060208201905081810360008301526131c9818461313a565b905092915050565b6000604051905090565b600080fd5b600080fd5b6131ee81612fdb565b81146131f957600080fd5b50565b60008135905061320b816131e5565b92915050565b600060208284031215613227576132266131db565b5b6000613235848285016131fc565b91505092915050565b600061012083016000830151848203600086015261325c8282612f82565b915050602083015184820360208601526132768282612f82565b915050604083015184820360408601526132908282612f82565b915050606083015184820360608601526132aa8282612f82565b915050608083015184820360808601526132c48282612f82565b91505060a083015184820360a08601526132de8282612f82565b91505060c08301516132f360c0860182612fed565b5060e083015161330660e0860182613006565b5061010083015161331b610100860182613022565b508091505092915050565b60006020820190508181036000830152613340818461323e565b905092915050565b600081519050919050565b600082825260208201905092915050565b6000819050602082019050919050565b600060608301600083015161338c6000860182612fed565b50602083015161339f6020860182613006565b50604083015184820360408601526133b78282612f82565b9150508091505092915050565b60006133d08383613374565b905092915050565b6000602082019050919050565b60006133f082613348565b6133fa8185613353565b93508360208202850161340c85613364565b8060005b85811015613448578484038952815161342985826133c4565b9450613434836133d8565b925060208a01995050600181019050613410565b50829750879550505050505092915050565b6000602082019050818103600083015261347481846133e5565b905092915050565b600081519050919050565b600082825260208201905092915050565b6000819050602082019050919050565b600060a08301600083015184820360008601526134c58282612f82565b915050602083015184820360208601526134df8282612f82565b91505060408301516134f46040860182612fed565b5060608301516135076060860182613006565b50608083015161351a6080860182613006565b508091505092915050565b600061353183836134a8565b905092915050565b6000602082019050919050565b60006135518261347c565b61355b8185613487565b93508360208202850161356d85613498565b8060005b858110156135a9578484038952815161358a8582613525565b945061359583613539565b925060208a01995050600181019050613571565b50829750879550505050505092915050565b600060208201905081810360008301526135d58184613546565b905092915050565b600080fd5b600080fd5b7f4e487b7100000000000000000000000000000000000000000000000000000000600052604160045260246000fd5b61361f82612f71565b810181811067ffffffffffffffff8211171561363e5761363d6135e7565b5b80604052505050565b60006136516131d1565b905061365d8282613616565b919050565b600067ffffffffffffffff82111561367d5761367c6135e7565b5b61368682612f71565b9050602081019050919050565b82818337600083830152505050565b60006136b56136b084613662565b613647565b9050828152602081018484840111156136d1576136d06135e2565b5b6136dc848285613693565b509392505050565b600082601f8301126136f9576136f86135dd565b5b81356137098482602086016136a2565b91505092915050565b60008060408385031215613729576137286131db565b5b600083013567ffffffffffffffff811115613747576137466131e0565b5b613753858286016136e4565b9250506020613764858286016131fc565b9150509250929050565b600082825260208201905092915050565b600061378a82612f22565b613794818561376e565b93506137a4818560208601612f3e565b6137ad81612f71565b840191505092915050565b600060208201905081810360008301526137d2818461377f565b905092915050565b600080600080600080600060e0888a0312156137f9576137f86131db565b5b600088013567ffffffffffffffff811115613817576138166131e0565b5b6138238a828b016136e4565b975050602088013567ffffffffffffffff811115613844576138436131e0565b5b6138508a828b016136e4565b965050604088013567ffffffffffffffff811115613871576138706131e0565b5b61387d8a828b016136e4565b955050606088013567ffffffffffffffff81111561389e5761389d6131e0565b5b6138aa8a828b016136e4565b945050608088013567ffffffffffffffff8111156138cb576138ca6131e0565b5b6138d78a828b016136e4565b93505060a088013567ffffffffffffffff8111156138f8576138f76131e0565b5b6139048a828b016136e4565b92505060c06139158a828b016131fc565b91505092959891949750929550565b61392d81612ffc565b811461393857600080fd5b50565b60008135905061394a81613924565b92915050565b60008060408385031215613967576139666131db565b5b6000613975858286016131fc565b92505060206139868582860161393b565b9150509250929050565b61399981612fdb565b82525050565b60006060820190506139b46000830186613990565b81810360208301526139c6818561377f565b905081810360408301526139da818461377f565b9050949350505050565b600080604083850312156139fb576139fa6131db565b5b6000613a09858286016131fc565b9250506020613a1a858286016131fc565b9150509250929050565b60008060408385031215613a3b57613a3a6131db565b5b6000613a498582860161393b565b925050602083013567ffffffffffffffff811115613a6a57613a696131e0565b5b613a76858286016136e4565b9150509250929050565b613a8981612ffc565b82525050565b6000602082019050613aa46000830184613a80565b92915050565b600060208284031215613ac057613abf6131db565b5b6000613ace8482850161393b565b91505092915050565b600081519050919050565b600082825260208201905092915050565b6000819050602082019050919050565b6000613b0f8383612f82565b905092915050565b6000602082019050919050565b6000613b2f82613ad7565b613b398185613ae2565b935083602082028501613b4b85613af3565b8060005b85811015613b875784840389528151613b688582613b03565b9450613b7383613b17565b925060208a01995050600181019050613b4f565b50829750879550505050505092915050565b60006020820190508181036000830152613bb38184613b24565b905092915050565b600080600060608486031215613bd457613bd36131db565b5b6000613be2868287016131fc565b935050602084013567ffffffffffffffff811115613c0357613c026131e0565b5b613c0f868287016136e4565b925050604084013567ffffffffffffffff811115613c3057613c2f6131e0565b5b613c3c868287016136e4565b9150509250925092565b600081519050919050565b600082825260208201905092915050565b6000819050602082019050919050565b6000606083016000830151613c8a6000860182612fed565b5060208301518482036020860152613ca28282612f82565b91505060408301518482036040860152613cbc8282612f82565b9150508091505092915050565b6000613cd58383613c72565b905092915050565b6000602082019050919050565b6000613cf582613c46565b613cff8185613c51565b935083602082028501613d1185613c62565b8060005b85811015613d4d5784840389528151613d2e8582613cc9565b9450613d3983613cdd565b925060208a01995050600181019050613d15565b50829750879550505050505092915050565b60006020820190508181036000830152613d798184613cea565b905092915050565b600060a0820190508181036000830152613d9b818861377f565b90508181036020830152613daf818761377f565b9050613dbe6040830186613990565b613dcb6060830185613a80565b613dd86080830184613a80565b9695505050505050565b613deb81613015565b82525050565b6000610120820190508181036000830152613e0c818c61377f565b90508181036020830152613e20818b61377f565b90508181036040830152613e34818a61377f565b90508181036060830152613e48818961377f565b90508181036080830152613e5c818861377f565b905081810360a0830152613e70818761377f565b9050613e7f60c0830186613990565b613e8c60e0830185613a80565b613e9a610100830184613de2565b9a9950505050505050505050565b600080fd5b600080fd5b60008083601f840112613ec857613ec76135dd565b5b8235905067ffffffffffffffff811115613ee557613ee4613ea8565b5b602083019150836001820283011115613f0157613f00613ead565b5b9250929050565b600080600060408486031215613f2157613f206131db565b5b6000613f2f868287016131fc565b935050602084013567ffffffffffffffff811115613f5057613f4f6131e0565b5b613f5c86828701613eb2565b92509250509250925092565b7f4e487b7100000000000000000000000000000000000000000000000000000000600052603260045260246000fd5b7f4e487b7100000000000000000000000000000000000000000000000000000000600052602260045260246000fd5b60006002820490506001821680613fde57607f821691505b60208210811415613ff257613ff1613f97565b5b50919050565b7f4e487b7100000000000000000000000000000000000000000000000000000000600052601160045260246000fd5b600061403282612ffc565b91507fffffffffffffffffffffffffffffffffffffffffffffffffffffffffffffffff82141561406557614064613ff8565b5b600182019050919050565b7f4163636573732064656e69656400000000000000000000000000000000000000600082015250565b60006140a6600d8361376e565b91506140b182614070565b602082019050919050565b600060208201905081810360008301526140d581614099565b9050919050565b7f43616e6e6f7420666f6c6c6f7720796f757273656c6600000000000000000000600082015250565b600061411260168361376e565b915061411d826140dc565b602082019050919050565b6000602082019050818103600083015261414181614105565b9050919050565b60008160601b9050919050565b600061416082614148565b9050919050565b600061417282614155565b9050919050565b61418a61418582612fdb565b614167565b82525050565b600061419c8285614179565b6014820191506141ac8284614179565b601482019150819050939250505056fea2646970667358221220203d588f82149738ea621bd3d16ffcd29a02ea6f08dd4af8f670836a8e9420ae64736f6c63430008090033",
  "linkReferences": {},
  "deployedLinkReferences": {}
}