{
  "_format": "hh-sol-artifact-1",
  "contractName": "SocialMedia",
  "sourceName": "contracts/SocialMedia.sol",
  "abi": [
    {
      "inputs": [
        {
          "internalType": "address",
          "name": "",
          "type": "address"
        }
      ],
      "name": "_account",
      "outputs": [
        {
          "internalType": "string",
          "name": "name",
          "type": "string"
        },
        {
          "internalType": "string",
          "name": "username",
          "type": "string"
        },
        {
          "internalType": "string",
          "name": "phonenum",
          "type": "string"
        },
        {
          "internalType": "string",
          "name": "email",
          "type": "string"
        },
        {
          "internalType": "string",
          "name": "bio",
          "type": "string"
        },
        {
          "internalType": "string",
          "name": "gender",
          "type": "string"
        },
        {
          "internalType": "address",
          "name": "userId",
          "type": "address"
        },
        {
          "internalType": "uint256",
          "name": "userNum",
          "type": "uint256"
        },
        {
          "internalType": "uint8",
          "name": "flag",
          "type": "uint8"
        }
      ],
      "stateMutability": "view",
      "type": "function"
    },
    {
      "inputs": [
        {
          "internalType": "address",
          "name": "",
          "type": "address"
        },
        {
          "internalType": "uint256",
          "name": "",
          "type": "uint256"
        }
      ],
      "name": "_followers",
      "outputs": [
        {
          "internalType": "address",
          "name": "",
          "type": "address"
        }
      ],
      "stateMutability": "view",
      "type": "function"
    },
    {
      "inputs": [
        {
          "internalType": "address",
          "name": "",
          "type": "address"
        }
      ],
      "name": "_picture",
      "outputs": [
        {
          "internalType": "string",
          "name": "pictureCid",
          "type": "string"
        }
      ],
      "stateMutability": "view",
      "type": "function"
    },
    {
      "inputs": [
        {
          "internalType": "uint256",
          "name": "postId",
          "type": "uint256"
        },
        {
          "internalType": "string",
          "name": "content",
          "type": "string"
        }
      ],
      "name": "addComment",
      "outputs": [],
      "stateMutability": "nonpayable",
      "type": "function"
    },
    {
      "inputs": [
        {
          "internalType": "address",
          "name": "wallet",
          "type": "address"
        },
        {
          "internalType": "string",
          "name": "p_hash",
          "type": "string"
        },
        {
          "internalType": "string",
          "name": "img_hash",
          "type": "string"
        }
      ],
      "name": "addPost",
      "outputs": [],
      "stateMutability": "nonpayable",
      "type": "function"
    },
    {
      "inputs": [],
      "name": "comment_count",
      "outputs": [
        {
          "internalType": "uint256",
          "name": "",
          "type": "uint256"
        }
      ],
      "stateMutability": "view",
      "type": "function"
    },
    {
      "inputs": [
        {
          "internalType": "address",
          "name": "wallet",
          "type": "address"
        },
        {
          "internalType": "address",
          "name": "follower",
          "type": "address"
        }
      ],
      "name": "follow",
      "outputs": [],
      "stateMutability": "nonpayable",
      "type": "function"
    },
    {
      "inputs": [],
      "name": "getAllProfiles",
      "outputs": [
        {
          "components": [
            {
              "internalType": "string",
              "name": "name",
              "type": "string"
            },
            {
              "internalType": "string",
              "name": "username",
              "type": "string"
            },
            {
              "internalType": "string",
              "name": "phonenum",
              "type": "string"
            },
            {
              "internalType": "string",
              "name": "email",
              "type": "string"
            },
            {
              "internalType": "string",
              "name": "bio",
              "type": "string"
            },
            {
              "internalType": "string",
              "name": "gender",
              "type": "string"
            },
            {
              "internalType": "address",
              "name": "userId",
              "type": "address"
            },
            {
              "internalType": "uint256",
              "name": "userNum",
              "type": "uint256"
            },
            {
              "internalType": "uint8",
              "name": "flag",
              "type": "uint8"
            }
          ],
          "internalType": "struct SocialMedia.userAccount[]",
          "name": "",
          "type": "tuple[]"
        }
      ],
      "stateMutability": "view",
      "type": "function"
    },
    {
      "inputs": [
        {
          "internalType": "address",
          "name": "wallet",
          "type": "address"
        }
      ],
      "name": "getFollowers",
      "outputs": [
        {
          "internalType": "address[]",
          "name": "",
          "type": "address[]"
        }
      ],
      "stateMutability": "view",
      "type": "function"
    },
    {
      "inputs": [
        {
          "internalType": "address",
          "name": "wallet",
          "type": "address"
        }
      ],
      "name": "getProfile",
      "outputs": [
        {
          "components": [
            {
              "internalType": "string",
              "name": "name",
              "type": "string"
            },
            {
              "internalType": "string",
              "name": "username",
              "type": "string"
            },
            {
              "internalType": "string",
              "name": "phonenum",
              "type": "string"
            },
            {
              "internalType": "string",
              "name": "email",
              "type": "string"
            },
            {
              "internalType": "string",
              "name": "bio",
              "type": "string"
            },
            {
              "internalType": "string",
              "name": "gender",
              "type": "string"
            },
            {
              "internalType": "address",
              "name": "userId",
              "type": "address"
            },
            {
              "internalType": "uint256",
              "name": "userNum",
              "type": "uint256"
            },
            {
              "internalType": "uint8",
              "name": "flag",
              "type": "uint8"
            }
          ],
          "internalType": "struct SocialMedia.userAccount",
          "name": "",
          "type": "tuple"
        }
      ],
      "stateMutability": "view",
      "type": "function"
    },
    {
      "inputs": [
        {
          "internalType": "uint256",
          "name": "",
          "type": "uint256"
        }
      ],
      "name": "post",
      "outputs": [
        {
          "internalType": "string",
          "name": "postHash",
          "type": "string"
        },
        {
          "internalType": "string",
          "name": "imgHash",
          "type": "string"
        },
        {
          "internalType": "address",
          "name": "userId",
          "type": "address"
        },
        {
          "internalType": "uint256",
          "name": "postNum",
          "type": "uint256"
        },
        {
          "internalType": "uint256",
          "name": "cmtcount",
          "type": "uint256"
        }
      ],
      "stateMutability": "view",
      "type": "function"
    },
    {
      "inputs": [],
      "name": "post_count",
      "outputs": [
        {
          "internalType": "uint256",
          "name": "",
          "type": "uint256"
        }
      ],
      "stateMutability": "view",
      "type": "function"
    },
    {
      "inputs": [
        {
          "internalType": "string",
          "name": "newPCid",
          "type": "string"
        },
        {
          "internalType": "address",
          "name": "wallet",
          "type": "address"
        }
      ],
      "name": "updatePicture",
      "outputs": [],
      "stateMutability": "nonpayable",
      "type": "function"
    },
    {
      "inputs": [
        {
          "internalType": "string",
          "name": "user_name",
          "type": "string"
        },
        {
          "internalType": "string",
          "name": "uname",
          "type": "string"
        },
        {
          "internalType": "string",
          "name": "phone",
          "type": "string"
        },
        {
          "internalType": "string",
          "name": "user_email",
          "type": "string"
        },
        {
          "internalType": "string",
          "name": "user_bio",
          "type": "string"
        },
        {
          "internalType": "string",
          "name": "user_gender",
          "type": "string"
        },
        {
          "internalType": "address",
          "name": "wallet",
          "type": "address"
        }
      ],
      "name": "updateProfile",
      "outputs": [],
      "stateMutability": "nonpayable",
      "type": "function"
    },
    {
      "inputs": [],
      "name": "user_count",
      "outputs": [
        {
          "internalType": "uint256",
          "name": "",
          "type": "uint256"
        }
      ],
      "stateMutability": "view",
      "type": "function"
    },
    {
      "inputs": [],
      "name": "viewPost",
      "outputs": [
        {
          "components": [
            {
              "internalType": "string",
              "name": "postHash",
              "type": "string"
            },
            {
              "internalType": "string",
              "name": "imgHash",
              "type": "string"
            },
            {
              "internalType": "address",
              "name": "userId",
              "type": "address"
            },
            {
              "internalType": "uint256",
              "name": "postNum",
              "type": "uint256"
            },
            {
              "internalType": "uint256",
              "name": "cmtcount",
              "type": "uint256"
            }
          ],
          "internalType": "struct SocialMedia.userPost[]",
          "name": "",
          "type": "tuple[]"
        }
      ],
      "stateMutability": "view",
      "type": "function"
    },
    {
      "inputs": [
        {
          "internalType": "uint256",
          "name": "postId",
          "type": "uint256"
        }
      ],
      "name": "viewPostComment",
      "outputs": [
        {
          "internalType": "string[]",
          "name": "",
          "type": "string[]"
        }
      ],
      "stateMutability": "view",
      "type": "function"
    },
    {
      "inputs": [
        {
          "internalType": "address",
          "name": "wallet",
          "type": "address"
        }
      ],
      "name": "viewUserPost",
      "outputs": [
        {
          "components": [
            {
              "internalType": "string",
              "name": "postHash",
              "type": "string"
            },
            {
              "internalType": "string",
              "name": "imgHash",
              "type": "string"
            },
            {
              "internalType": "address",
              "name": "userId",
              "type": "address"
            },
            {
              "internalType": "uint256",
              "name": "postNum",
              "type": "uint256"
            },
            {
              "internalType": "uint256",
              "name": "cmtcount",
              "type": "uint256"
            }
          ],
          "internalType": "struct SocialMedia.userPost[]",
          "name": "",
          "type": "tuple[]"
        }
      ],
      "stateMutability": "view",
      "type": "function"
    }
  ],
  "bytecode": "0x608060405234801561001057600080fd5b506136b6806100206000396000f3fe608060405234801561001057600080fd5b50600436106101165760003560e01c8063aa7e5683116100a2578063c264ea4311610071578063c264ea43146102f3578063c2fe20221461030f578063caa5863c1461033f578063cb0e55a814610373578063ffc56696146103ab57610116565b8063aa7e56831461026b578063bb805f6914610287578063bc153105146102a5578063c21d71c7146102d557610116565b8063477c1968116100e9578063477c1968146101a35780636b6042d1146101d35780639068f2c7146101ef57806399d147c21461021f5780639cd90a111461023b57610116565b80630b1fe7841461011b5780630f53a470146101395780632592f096146101695780632ae025e014610187575b600080fd5b6101236103c9565b604051610130919061296f565b60405180910390f35b610153600480360381019061014e91906129d1565b6108dd565b6040516101609190612ae6565b60405180910390f35b610171610d20565b60405161017e9190612c47565b60405180910390f35b6101a1600480360381019061019c9190612d9e565b610f0d565b005b6101bd60048036038101906101b891906129d1565b610fed565b6040516101ca9190612e44565b60405180910390f35b6101ed60048036038101906101e89190612e66565b611093565b005b61020960048036038101906102049190612fdc565b6115aa565b604051610216919061302b565b60405180910390f35b61023960048036038101906102349190613046565b6115f8565b005b610255600480360381019061025091906129d1565b61170b565b6040516102629190612c47565b60405180910390f35b61028560048036038101906102809190613086565b611b0b565b005b61028f611c2e565b60405161029c91906130f1565b60405180910390f35b6102bf60048036038101906102ba919061310c565b611c34565b6040516102cc91906131fb565b60405180910390f35b6102dd611de3565b6040516102ea91906130f1565b60405180910390f35b61030d6004803603810190610308919061321d565b611de9565b005b610329600480360381019061032491906129d1565b611f75565b6040516103369190613357565b60405180910390f35b6103596004803603810190610354919061310c565b612042565b60405161036a959493929190613379565b60405180910390f35b61038d600480360381019061038891906129d1565b6121b8565b6040516103a2999897969594939291906133e9565b60405180910390f35b6103b3612563565b6040516103c091906130f1565b60405180910390f35b6060600060025467ffffffffffffffff8111156103e9576103e8612c73565b5b60405190808252806020026020018201604052801561042257816020015b61040f612569565b8152602001906001900390816104075790505b50905060005b6002548110156108d557600360006005838154811061044a576104496134a0565b5b9060005260206000200160009054906101000a900473ffffffffffffffffffffffffffffffffffffffff1673ffffffffffffffffffffffffffffffffffffffff1673ffffffffffffffffffffffffffffffffffffffff168152602001908152602001600020604051806101200160405290816000820180546104cb906134fe565b80601f01602080910402602001604051908101604052809291908181526020018280546104f7906134fe565b80156105445780601f1061051957610100808354040283529160200191610544565b820191906000526020600020905b81548152906001019060200180831161052757829003601f168201915b5050505050815260200160018201805461055d906134fe565b80601f0160208091040260200160405190810160405280929190818152602001828054610589906134fe565b80156105d65780601f106105ab576101008083540402835291602001916105d6565b820191906000526020600020905b8154815290600101906020018083116105b957829003601f168201915b505050505081526020016002820180546105ef906134fe565b80601f016020809104026020016040519081016040528092919081815260200182805461061b906134fe565b80156106685780601f1061063d57610100808354040283529160200191610668565b820191906000526020600020905b81548152906001019060200180831161064b57829003601f168201915b50505050508152602001600382018054610681906134fe565b80601f01602080910402602001604051908101604052809291908181526020018280546106ad906134fe565b80156106fa5780601f106106cf576101008083540402835291602001916106fa565b820191906000526020600020905b8154815290600101906020018083116106dd57829003601f168201915b50505050508152602001600482018054610713906134fe565b80601f016020809104026020016040519081016040528092919081815260200182805461073f906134fe565b801561078c5780601f106107615761010080835404028352916020019161078c565b820191906000526020600020905b81548152906001019060200180831161076f57829003601f168201915b505050505081526020016005820180546107a5906134fe565b80601f01602080910402602001604051908101604052809291908181526020018280546107d1906134fe565b801561081e5780601f106107f35761010080835404028352916020019161081e565b820191906000526020600020905b81548152906001019060200180831161080157829003601f168201915b505050505081526020016006820160009054906101000a900473ffffffffffffffffffffffffffffffffffffffff1673ffffffffffffffffffffffffffffffffffffffff1673ffffffffffffffffffffffffffffffffffffffff168152602001600782015481526020016008820160009054906101000a900460ff1660ff1660ff16815250508282815181106108b7576108b66134a0565b5b602002602001018190525080806108cd9061355f565b915050610428565b508091505090565b6108e5612569565b600360008373ffffffffffffffffffffffffffffffffffffffff1673ffffffffffffffffffffffffffffffffffffffff16815260200190815260200160002060405180610120016040529081600082018054610940906134fe565b80601f016020809104026020016040519081016040528092919081815260200182805461096c906134fe565b80156109b95780601f1061098e576101008083540402835291602001916109b9565b820191906000526020600020905b81548152906001019060200180831161099c57829003601f168201915b505050505081526020016001820180546109d2906134fe565b80601f01602080910402602001604051908101604052809291908181526020018280546109fe906134fe565b8015610a4b5780601f10610a2057610100808354040283529160200191610a4b565b820191906000526020600020905b815481529060010190602001808311610a2e57829003601f168201915b50505050508152602001600282018054610a64906134fe565b80601f0160208091040260200160405190810160405280929190818152602001828054610a90906134fe565b8015610add5780601f10610ab257610100808354040283529160200191610add565b820191906000526020600020905b815481529060010190602001808311610ac057829003601f168201915b50505050508152602001600382018054610af6906134fe565b80601f0160208091040260200160405190810160405280929190818152602001828054610b22906134fe565b8015610b6f5780601f10610b4457610100808354040283529160200191610b6f565b820191906000526020600020905b815481529060010190602001808311610b5257829003601f168201915b50505050508152602001600482018054610b88906134fe565b80601f0160208091040260200160405190810160405280929190818152602001828054610bb4906134fe565b8015610c015780601f10610bd657610100808354040283529160200191610c01565b820191906000526020600020905b815481529060010190602001808311610be457829003601f168201915b50505050508152602001600582018054610c1a906134fe565b80601f0160208091040260200160405190810160405280929190818152602001828054610c46906134fe565b8015610c935780601f10610c6857610100808354040283529160200191610c93565b820191906000526020600020905b815481529060010190602001808311610c7657829003601f168201915b505050505081526020016006820160009054906101000a900473ffffffffffffffffffffffffffffffffffffffff1673ffffffffffffffffffffffffffffffffffffffff1673ffffffffffffffffffffffffffffffffffffffff168152602001600782015481526020016008820160009054906101000a900460ff1660ff1660ff16815250509050919050565b60606007805480602002602001604051908101604052809291908181526020016000905b82821015610f0457838290600052602060002090600502016040518060a0016040529081600082018054610d77906134fe565b80601f0160208091040260200160405190810160405280929190818152602001828054610da3906134fe565b8015610df05780601f10610dc557610100808354040283529160200191610df0565b820191906000526020600020905b815481529060010190602001808311610dd357829003601f168201915b50505050508152602001600182018054610e09906134fe565b80601f0160208091040260200160405190810160405280929190818152602001828054610e35906134fe565b8015610e825780601f10610e5757610100808354040283529160200191610e82565b820191906000526020600020905b815481529060010190602001808311610e6557829003601f168201915b505050505081526020016002820160009054906101000a900473ffffffffffffffffffffffffffffffffffffffff1673ffffffffffffffffffffffffffffffffffffffff1673ffffffffffffffffffffffffffffffffffffffff1681526020016003820154815260200160048201548152505081526020019060010190610d44565b50505050905090565b3373ffffffffffffffffffffffffffffffffffffffff168173ffffffffffffffffffffffffffffffffffffffff1614610f7b576040517f08c379a0000000000000000000000000000000000000000000000000000000008152600401610f72906135f4565b60405180910390fd5b604051806020016040528083815250600460008373ffffffffffffffffffffffffffffffffffffffff1673ffffffffffffffffffffffffffffffffffffffff1681526020019081526020016000206000820151816000019080519060200190610fe59291906125ce565b509050505050565b6004602052806000526040600020600091509050806000018054611010906134fe565b80601f016020809104026020016040519081016040528092919081815260200182805461103c906134fe565b80156110895780601f1061105e57610100808354040283529160200191611089565b820191906000526020600020905b81548152906001019060200180831161106c57829003601f168201915b5050505050905081565b3373ffffffffffffffffffffffffffffffffffffffff168173ffffffffffffffffffffffffffffffffffffffff1614611101576040517f08c379a00000000000000000000000000000000000000000000000000000000081526004016110f8906135f4565b60405180910390fd5b6001600360008373ffffffffffffffffffffffffffffffffffffffff1673ffffffffffffffffffffffffffffffffffffffff16815260200190815260200160002060080160009054906101000a900460ff1660ff161415611366576000600360003373ffffffffffffffffffffffffffffffffffffffff1673ffffffffffffffffffffffffffffffffffffffff1681526020019081526020016000206007015490506040518061012001604052808981526020018881526020018781526020018681526020018581526020018481526020018373ffffffffffffffffffffffffffffffffffffffff168152602001828152602001600160ff16815250600360008473ffffffffffffffffffffffffffffffffffffffff1673ffffffffffffffffffffffffffffffffffffffff16815260200190815260200160002060008201518160000190805190602001906112589291906125ce565b5060208201518160010190805190602001906112759291906125ce565b5060408201518160020190805190602001906112929291906125ce565b5060608201518160030190805190602001906112af9291906125ce565b5060808201518160040190805190602001906112cc9291906125ce565b5060a08201518160050190805190602001906112e99291906125ce565b5060c08201518160060160006101000a81548173ffffffffffffffffffffffffffffffffffffffff021916908373ffffffffffffffffffffffffffffffffffffffff16021790555060e082015181600701556101008201518160080160006101000a81548160ff021916908360ff160217905550905050506115a1565b6005819080600181540180825580915050600190039060005260206000200160009091909190916101000a81548173ffffffffffffffffffffffffffffffffffffffff021916908373ffffffffffffffffffffffffffffffffffffffff160217905550600260008154809291906113dc9061355f565b91905055506040518061012001604052808881526020018781526020018681526020018581526020018481526020018381526020018273ffffffffffffffffffffffffffffffffffffffff1681526020016002548152602001600160ff16815250600360008373ffffffffffffffffffffffffffffffffffffffff1673ffffffffffffffffffffffffffffffffffffffff16815260200190815260200160002060008201518160000190805190602001906114989291906125ce565b5060208201518160010190805190602001906114b59291906125ce565b5060408201518160020190805190602001906114d29291906125ce565b5060608201518160030190805190602001906114ef9291906125ce565b50608082015181600401908051906020019061150c9291906125ce565b5060a08201518160050190805190602001906115299291906125ce565b5060c08201518160060160006101000a81548173ffffffffffffffffffffffffffffffffffffffff021916908373ffffffffffffffffffffffffffffffffffffffff16021790555060e082015181600701556101008201518160080160006101000a81548160ff021916908360ff1602179055509050505b50505050505050565b600860205281600052604060002081815481106115c657600080fd5b906000526020600020016000915091509054906101000a900473ffffffffffffffffffffffffffffffffffffffff1681565b8073ffffffffffffffffffffffffffffffffffffffff168273ffffffffffffffffffffffffffffffffffffffff161415611667576040517f08c379a000000000000000000000000000000000000000000000000000000000815260040161165e90613660565b60405180910390fd5b600860008373ffffffffffffffffffffffffffffffffffffffff1673ffffffffffffffffffffffffffffffffffffffff168152602001908152602001600020819080600181540180825580915050600190039060005260206000200160009091909190916101000a81548173ffffffffffffffffffffffffffffffffffffffff021916908373ffffffffffffffffffffffffffffffffffffffff1602179055505050565b60603373ffffffffffffffffffffffffffffffffffffffff168273ffffffffffffffffffffffffffffffffffffffff161461177b576040517f08c379a0000000000000000000000000000000000000000000000000000000008152600401611772906135f4565b60405180910390fd5b6000805b600054811015611824578373ffffffffffffffffffffffffffffffffffffffff16600782815481106117b4576117b36134a0565b5b906000526020600020906005020160020160009054906101000a900473ffffffffffffffffffffffffffffffffffffffff1673ffffffffffffffffffffffffffffffffffffffff16141561181157818061180d9061355f565b9250505b808061181c9061355f565b91505061177f565b5060008167ffffffffffffffff81111561184157611840612c73565b5b60405190808252806020026020018201604052801561187a57816020015b611867612654565b81526020019060019003908161185f5790505b5090506000805b600054811015611aff578573ffffffffffffffffffffffffffffffffffffffff16600782815481106118b6576118b56134a0565b5b906000526020600020906005020160020160009054906101000a900473ffffffffffffffffffffffffffffffffffffffff1673ffffffffffffffffffffffffffffffffffffffff161415611aec5760078181548110611918576119176134a0565b5b90600052602060002090600502016040518060a0016040529081600082018054611941906134fe565b80601f016020809104026020016040519081016040528092919081815260200182805461196d906134fe565b80156119ba5780601f1061198f576101008083540402835291602001916119ba565b820191906000526020600020905b81548152906001019060200180831161199d57829003601f168201915b505050505081526020016001820180546119d3906134fe565b80601f01602080910402602001604051908101604052809291908181526020018280546119ff906134fe565b8015611a4c5780601f10611a2157610100808354040283529160200191611a4c565b820191906000526020600020905b815481529060010190602001808311611a2f57829003601f168201915b505050505081526020016002820160009054906101000a900473ffffffffffffffffffffffffffffffffffffffff1673ffffffffffffffffffffffffffffffffffffffff1673ffffffffffffffffffffffffffffffffffffffff16815260200160038201548152602001600482015481525050838381518110611ad257611ad16134a0565b5b60200260200101819052508180611ae89061355f565b9250505b8080611af79061355f565b915050611881565b50819350505050919050565b60016000815480929190611b1e9061355f565b919050555060078281548110611b3757611b366134a0565b5b90600052602060002090600502016004016000815480929190611b599061355f565b9190505550600660405180606001604052808381526020018481526020013373ffffffffffffffffffffffffffffffffffffffff1681525090806001815401808255809150506001900390600052602060002090600302016000909190919091506000820151816000019080519060200190611bd69291906125ce565b506020820151816001015560408201518160020160006101000a81548173ffffffffffffffffffffffffffffffffffffffff021916908373ffffffffffffffffffffffffffffffffffffffff16021790555050505050565b60025481565b6060600060078381548110611c4c57611c4b6134a0565b5b90600052602060002090600502016004015467ffffffffffffffff811115611c7757611c76612c73565b5b604051908082528060200260200182016040528015611caa57816020015b6060815260200190600190039081611c955790505b509050600080600090505b600154811015611dd8578460068281548110611cd457611cd36134a0565b5b9060005260206000209060030201600101541415611dc55760068181548110611d0057611cff6134a0565b5b90600052602060002090600302016000018054611d1c906134fe565b80601f0160208091040260200160405190810160405280929190818152602001828054611d48906134fe565b8015611d955780601f10611d6a57610100808354040283529160200191611d95565b820191906000526020600020905b815481529060010190602001808311611d7857829003601f168201915b5050505050838380611da69061355f565b945081518110611db957611db86134a0565b5b60200260200101819052505b8080611dd09061355f565b915050611cb5565b508192505050919050565b60005481565b3373ffffffffffffffffffffffffffffffffffffffff168373ffffffffffffffffffffffffffffffffffffffff1614611e57576040517f08c379a0000000000000000000000000000000000000000000000000000000008152600401611e4e906135f4565b60405180910390fd5b600080815480929190611e699061355f565b919050555060076040518060a001604052808481526020018381526020018573ffffffffffffffffffffffffffffffffffffffff1681526020016000548152602001600081525090806001815401808255809150506001900390600052602060002090600502016000909190919091506000820151816000019080519060200190611ef59291906125ce565b506020820151816001019080519060200190611f129291906125ce565b5060408201518160020160006101000a81548173ffffffffffffffffffffffffffffffffffffffff021916908373ffffffffffffffffffffffffffffffffffffffff16021790555060608201518160030155608082015181600401555050505050565b6060600860008373ffffffffffffffffffffffffffffffffffffffff1673ffffffffffffffffffffffffffffffffffffffff16815260200190815260200160002080548060200260200160405190810160405280929190818152602001828054801561203657602002820191906000526020600020905b8160009054906101000a900473ffffffffffffffffffffffffffffffffffffffff1673ffffffffffffffffffffffffffffffffffffffff1681526020019060010190808311611fec575b50505050509050919050565b6007818154811061205257600080fd5b9060005260206000209060050201600091509050806000018054612075906134fe565b80601f01602080910402602001604051908101604052809291908181526020018280546120a1906134fe565b80156120ee5780601f106120c3576101008083540402835291602001916120ee565b820191906000526020600020905b8154815290600101906020018083116120d157829003601f168201915b505050505090806001018054612103906134fe565b80601f016020809104026020016040519081016040528092919081815260200182805461212f906134fe565b801561217c5780601f106121515761010080835404028352916020019161217c565b820191906000526020600020905b81548152906001019060200180831161215f57829003601f168201915b5050505050908060020160009054906101000a900473ffffffffffffffffffffffffffffffffffffffff16908060030154908060040154905085565b60036020528060005260406000206000915090508060000180546121db906134fe565b80601f0160208091040260200160405190810160405280929190818152602001828054612207906134fe565b80156122545780601f1061222957610100808354040283529160200191612254565b820191906000526020600020905b81548152906001019060200180831161223757829003601f168201915b505050505090806001018054612269906134fe565b80601f0160208091040260200160405190810160405280929190818152602001828054612295906134fe565b80156122e25780601f106122b7576101008083540402835291602001916122e2565b820191906000526020600020905b8154815290600101906020018083116122c557829003601f168201915b5050505050908060020180546122f7906134fe565b80601f0160208091040260200160405190810160405280929190818152602001828054612323906134fe565b80156123705780601f1061234557610100808354040283529160200191612370565b820191906000526020600020905b81548152906001019060200180831161235357829003601f168201915b505050505090806003018054612385906134fe565b80601f01602080910402602001604051908101604052809291908181526020018280546123b1906134fe565b80156123fe5780601f106123d3576101008083540402835291602001916123fe565b820191906000526020600020905b8154815290600101906020018083116123e157829003601f168201915b505050505090806004018054612413906134fe565b80601f016020809104026020016040519081016040528092919081815260200182805461243f906134fe565b801561248c5780601f106124615761010080835404028352916020019161248c565b820191906000526020600020905b81548152906001019060200180831161246f57829003601f168201915b5050505050908060050180546124a1906134fe565b80601f01602080910402602001604051908101604052809291908181526020018280546124cd906134fe565b801561251a5780601f106124ef5761010080835404028352916020019161251a565b820191906000526020600020905b8154815290600101906020018083116124fd57829003601f168201915b5050505050908060060160009054906101000a900473ffffffffffffffffffffffffffffffffffffffff16908060070154908060080160009054906101000a900460ff16905089565b60015481565b604051806101200160405280606081526020016060815260200160608152602001606081526020016060815260200160608152602001600073ffffffffffffffffffffffffffffffffffffffff16815260200160008152602001600060ff1681525090565b8280546125da906134fe565b90600052602060002090601f0160209004810192826125fc5760008555612643565b82601f1061261557805160ff1916838001178555612643565b82800160010185558215612643579182015b82811115612642578251825591602001919060010190612627565b5b5090506126509190612699565b5090565b6040518060a001604052806060815260200160608152602001600073ffffffffffffffffffffffffffffffffffffffff16815260200160008152602001600081525090565b5b808211156126b257600081600090555060010161269a565b5090565b600081519050919050565b600082825260208201905092915050565b6000819050602082019050919050565b600081519050919050565b600082825260208201905092915050565b60005b8381101561271c578082015181840152602081019050612701565b8381111561272b576000848401525b50505050565b6000601f19601f8301169050919050565b600061274d826126e2565b61275781856126ed565b93506127678185602086016126fe565b61277081612731565b840191505092915050565b600073ffffffffffffffffffffffffffffffffffffffff82169050919050565b60006127a68261277b565b9050919050565b6127b68161279b565b82525050565b6000819050919050565b6127cf816127bc565b82525050565b600060ff82169050919050565b6127eb816127d5565b82525050565b600061012083016000830151848203600086015261280f8282612742565b915050602083015184820360208601526128298282612742565b915050604083015184820360408601526128438282612742565b9150506060830151848203606086015261285d8282612742565b915050608083015184820360808601526128778282612742565b91505060a083015184820360a08601526128918282612742565b91505060c08301516128a660c08601826127ad565b5060e08301516128b960e08601826127c6565b506101008301516128ce6101008601826127e2565b508091505092915050565b60006128e583836127f1565b905092915050565b6000602082019050919050565b6000612905826126b6565b61290f81856126c1565b935083602082028501612921856126d2565b8060005b8581101561295d578484038952815161293e85826128d9565b9450612949836128ed565b925060208a01995050600181019050612925565b50829750879550505050505092915050565b6000602082019050818103600083015261298981846128fa565b905092915050565b6000604051905090565b600080fd5b600080fd5b6129ae8161279b565b81146129b957600080fd5b50565b6000813590506129cb816129a5565b92915050565b6000602082840312156129e7576129e661299b565b5b60006129f5848285016129bc565b91505092915050565b6000610120830160008301518482036000860152612a1c8282612742565b91505060208301518482036020860152612a368282612742565b91505060408301518482036040860152612a508282612742565b91505060608301518482036060860152612a6a8282612742565b91505060808301518482036080860152612a848282612742565b91505060a083015184820360a0860152612a9e8282612742565b91505060c0830151612ab360c08601826127ad565b5060e0830151612ac660e08601826127c6565b50610100830151612adb6101008601826127e2565b508091505092915050565b60006020820190508181036000830152612b0081846129fe565b905092915050565b600081519050919050565b600082825260208201905092915050565b6000819050602082019050919050565b600060a0830160008301518482036000860152612b518282612742565b91505060208301518482036020860152612b6b8282612742565b9150506040830151612b8060408601826127ad565b506060830151612b9360608601826127c6565b506080830151612ba660808601826127c6565b508091505092915050565b6000612bbd8383612b34565b905092915050565b6000602082019050919050565b6000612bdd82612b08565b612be78185612b13565b935083602082028501612bf985612b24565b8060005b85811015612c355784840389528151612c168582612bb1565b9450612c2183612bc5565b925060208a01995050600181019050612bfd565b50829750879550505050505092915050565b60006020820190508181036000830152612c618184612bd2565b905092915050565b600080fd5b600080fd5b7f4e487b7100000000000000000000000000000000000000000000000000000000600052604160045260246000fd5b612cab82612731565b810181811067ffffffffffffffff82111715612cca57612cc9612c73565b5b80604052505050565b6000612cdd612991565b9050612ce98282612ca2565b919050565b600067ffffffffffffffff821115612d0957612d08612c73565b5b612d1282612731565b9050602081019050919050565b82818337600083830152505050565b6000612d41612d3c84612cee565b612cd3565b905082815260208101848484011115612d5d57612d5c612c6e565b5b612d68848285612d1f565b509392505050565b600082601f830112612d8557612d84612c69565b5b8135612d95848260208601612d2e565b91505092915050565b60008060408385031215612db557612db461299b565b5b600083013567ffffffffffffffff811115612dd357612dd26129a0565b5b612ddf85828601612d70565b9250506020612df0858286016129bc565b9150509250929050565b600082825260208201905092915050565b6000612e16826126e2565b612e208185612dfa565b9350612e308185602086016126fe565b612e3981612731565b840191505092915050565b60006020820190508181036000830152612e5e8184612e0b565b905092915050565b600080600080600080600060e0888a031215612e8557612e8461299b565b5b600088013567ffffffffffffffff811115612ea357612ea26129a0565b5b612eaf8a828b01612d70565b975050602088013567ffffffffffffffff811115612ed057612ecf6129a0565b5b612edc8a828b01612d70565b965050604088013567ffffffffffffffff811115612efd57612efc6129a0565b5b612f098a828b01612d70565b955050606088013567ffffffffffffffff811115612f2a57612f296129a0565b5b612f368a828b01612d70565b945050608088013567ffffffffffffffff811115612f5757612f566129a0565b5b612f638a828b01612d70565b93505060a088013567ffffffffffffffff811115612f8457612f836129a0565b5b612f908a828b01612d70565b92505060c0612fa18a828b016129bc565b91505092959891949750929550565b612fb9816127bc565b8114612fc457600080fd5b50565b600081359050612fd681612fb0565b92915050565b60008060408385031215612ff357612ff261299b565b5b6000613001858286016129bc565b925050602061301285828601612fc7565b9150509250929050565b6130258161279b565b82525050565b6000602082019050613040600083018461301c565b92915050565b6000806040838503121561305d5761305c61299b565b5b600061306b858286016129bc565b925050602061307c858286016129bc565b9150509250929050565b6000806040838503121561309d5761309c61299b565b5b60006130ab85828601612fc7565b925050602083013567ffffffffffffffff8111156130cc576130cb6129a0565b5b6130d885828601612d70565b9150509250929050565b6130eb816127bc565b82525050565b600060208201905061310660008301846130e2565b92915050565b6000602082840312156131225761312161299b565b5b600061313084828501612fc7565b91505092915050565b600081519050919050565b600082825260208201905092915050565b6000819050602082019050919050565b60006131718383612742565b905092915050565b6000602082019050919050565b600061319182613139565b61319b8185613144565b9350836020820285016131ad85613155565b8060005b858110156131e957848403895281516131ca8582613165565b94506131d583613179565b925060208a019950506001810190506131b1565b50829750879550505050505092915050565b600060208201905081810360008301526132158184613186565b905092915050565b6000806000606084860312156132365761323561299b565b5b6000613244868287016129bc565b935050602084013567ffffffffffffffff811115613265576132646129a0565b5b61327186828701612d70565b925050604084013567ffffffffffffffff811115613292576132916129a0565b5b61329e86828701612d70565b9150509250925092565b600081519050919050565b600082825260208201905092915050565b6000819050602082019050919050565b60006132e083836127ad565b60208301905092915050565b6000602082019050919050565b6000613304826132a8565b61330e81856132b3565b9350613319836132c4565b8060005b8381101561334a57815161333188826132d4565b975061333c836132ec565b92505060018101905061331d565b5085935050505092915050565b6000602082019050818103600083015261337181846132f9565b905092915050565b600060a08201905081810360008301526133938188612e0b565b905081810360208301526133a78187612e0b565b90506133b6604083018661301c565b6133c360608301856130e2565b6133d060808301846130e2565b9695505050505050565b6133e3816127d5565b82525050565b6000610120820190508181036000830152613404818c612e0b565b90508181036020830152613418818b612e0b565b9050818103604083015261342c818a612e0b565b905081810360608301526134408189612e0b565b905081810360808301526134548188612e0b565b905081810360a08301526134688187612e0b565b905061347760c083018661301c565b61348460e08301856130e2565b6134926101008301846133da565b9a9950505050505050505050565b7f4e487b7100000000000000000000000000000000000000000000000000000000600052603260045260246000fd5b7f4e487b7100000000000000000000000000000000000000000000000000000000600052602260045260246000fd5b6000600282049050600182168061351657607f821691505b6020821081141561352a576135296134cf565b5b50919050565b7f4e487b7100000000000000000000000000000000000000000000000000000000600052601160045260246000fd5b600061356a826127bc565b91507fffffffffffffffffffffffffffffffffffffffffffffffffffffffffffffffff82141561359d5761359c613530565b5b600182019050919050565b7f4163636573732064656e69656400000000000000000000000000000000000000600082015250565b60006135de600d83612dfa565b91506135e9826135a8565b602082019050919050565b6000602082019050818103600083015261360d816135d1565b9050919050565b7f43616e6e6f7420666f6c6c6f7720796f757273656c6600000000000000000000600082015250565b600061364a601683612dfa565b915061365582613614565b602082019050919050565b600060208201905081810360008301526136798161363d565b905091905056fea264697066735822122091eba34c1c42ef69e8757d458719572ce5f835d43208dc6f5dbdc78609e0065064736f6c63430008090033",
  "linkReferences": {},
  "deployedLinkReferences": {}
}